{
  "contractName": "HealthRecord",
  "abi": [
    {
      "inputs": [
        {
          "internalType": "string",
          "name": "_timestamp",
          "type": "string"
        },
        {
          "internalType": "string",
          "name": "_temperature",
          "type": "string"
        },
        {
          "internalType": "string",
          "name": "_heartRate",
          "type": "string"
        },
        {
          "internalType": "string",
          "name": "_spo2",
          "type": "string"
        },
        {
          "internalType": "string",
          "name": "_systolic",
          "type": "string"
        },
        {
          "internalType": "string",
          "name": "_diastolic",
          "type": "string"
        },
        {
          "internalType": "address",
          "name": "_wallet",
          "type": "address"
        }
      ],
      "name": "addHealthRecord",
      "outputs": [],
      "stateMutability": "nonpayable",
      "type": "function"
    },
    {
      "inputs": [
        {
          "internalType": "address",
          "name": "_wallet",
          "type": "address"
        }
      ],
      "name": "getLatestRecord",
      "outputs": [
        {
          "internalType": "string",
          "name": "timestamp",
          "type": "string"
        },
        {
          "internalType": "string",
          "name": "temperature",
          "type": "string"
        },
        {
          "internalType": "string",
          "name": "heartRate",
          "type": "string"
        },
        {
          "internalType": "string",
          "name": "spo2",
          "type": "string"
        },
        {
          "internalType": "string",
          "name": "systolic",
          "type": "string"
        },
        {
          "internalType": "string",
          "name": "diastolic",
          "type": "string"
        }
      ],
      "stateMutability": "view",
      "type": "function",
      "constant": true
    },
    {
      "inputs": [],
      "name": "getRecordCount",
      "outputs": [
        {
          "internalType": "uint256",
          "name": "",
          "type": "uint256"
        }
      ],
      "stateMutability": "view",
      "type": "function",
      "constant": true
    },
    {
      "inputs": [
        {
          "internalType": "uint256",
          "name": "index",
          "type": "uint256"
        }
      ],
      "name": "getRecordByIndex",
      "outputs": [
        {
          "internalType": "string",
          "name": "timestamp",
          "type": "string"
        },
        {
          "internalType": "string",
          "name": "temperature",
          "type": "string"
        },
        {
          "internalType": "string",
          "name": "heartRate",
          "type": "string"
        },
        {
          "internalType": "string",
          "name": "spo2",
          "type": "string"
        },
        {
          "internalType": "string",
          "name": "systolic",
          "type": "string"
        },
        {
          "internalType": "string",
          "name": "diastolic",
          "type": "string"
        }
      ],
      "stateMutability": "view",
      "type": "function",
      "constant": true
    }
  ],
  "bytecode": "0x608060405234801561001057600080fd5b5061177a806100206000396000f3fe608060405234801561001057600080fd5b506004361061004c5760003560e01c80632793c937146100515780632f63bd6a1461006d578063ca267f28146100a2578063e1c627c4146100c0575b600080fd5b61006b60048036038101906100669190610f80565b6100f5565b005b610087600480360381019061008291906110ca565b610367565b60405161009996959493929190611176565b60405180910390f35b6100aa610894565b6040516100b7919061121a565b60405180910390f35b6100da60048036038101906100d59190611261565b6108db565b6040516100ec96959493929190611176565b60405180910390f35b60006040518060e001604052808981526020018881526020018781526020018681526020018581526020018481526020018373ffffffffffffffffffffffffffffffffffffffff1681525090506000808373ffffffffffffffffffffffffffffffffffffffff1673ffffffffffffffffffffffffffffffffffffffff16815260200190815260200160002081908060018154018082558091505060019003906000526020600020906007020160009091909190915060008201518160000190816101bf919061149a565b5060208201518160010190816101d5919061149a565b5060408201518160020190816101eb919061149a565b506060820151816003019081610201919061149a565b506080820151816004019081610217919061149a565b5060a082015181600501908161022d919061149a565b5060c08201518160060160006101000a81548173ffffffffffffffffffffffffffffffffffffffff021916908373ffffffffffffffffffffffffffffffffffffffff160217905550505060016000808473ffffffffffffffffffffffffffffffffffffffff1673ffffffffffffffffffffffffffffffffffffffff168152602001908152602001600020805490506102c5919061159b565b600160008473ffffffffffffffffffffffffffffffffffffffff1673ffffffffffffffffffffffffffffffffffffffff16815260200190815260200160002081905550600260008373ffffffffffffffffffffffffffffffffffffffff1673ffffffffffffffffffffffffffffffffffffffff1681526020019081526020016000206000815480929190610358906115cf565b91905055505050505050505050565b6060806060806060806000600260008973ffffffffffffffffffffffffffffffffffffffff1673ffffffffffffffffffffffffffffffffffffffff16815260200190815260200160002054116103f2576040517f08c379a00000000000000000000000000000000000000000000000000000000081526004016103e990611689565b60405180910390fd5b60008060008973ffffffffffffffffffffffffffffffffffffffff1673ffffffffffffffffffffffffffffffffffffffff168152602001908152602001600020600160003373ffffffffffffffffffffffffffffffffffffffff1673ffffffffffffffffffffffffffffffffffffffff1681526020019081526020016000205481548110610483576104826116a9565b5b90600052602060002090600702016040518060e00160405290816000820180546104ac906112bd565b80601f01602080910402602001604051908101604052809291908181526020018280546104d8906112bd565b80156105255780601f106104fa57610100808354040283529160200191610525565b820191906000526020600020905b81548152906001019060200180831161050857829003601f168201915b5050505050815260200160018201805461053e906112bd565b80601f016020809104026020016040519081016040528092919081815260200182805461056a906112bd565b80156105b75780601f1061058c576101008083540402835291602001916105b7565b820191906000526020600020905b81548152906001019060200180831161059a57829003601f168201915b505050505081526020016002820180546105d0906112bd565b80601f01602080910402602001604051908101604052809291908181526020018280546105fc906112bd565b80156106495780601f1061061e57610100808354040283529160200191610649565b820191906000526020600020905b81548152906001019060200180831161062c57829003601f168201915b50505050508152602001600382018054610662906112bd565b80601f016020809104026020016040519081016040528092919081815260200182805461068e906112bd565b80156106db5780601f106106b0576101008083540402835291602001916106db565b820191906000526020600020905b8154815290600101906020018083116106be57829003601f168201915b505050505081526020016004820180546106f4906112bd565b80601f0160208091040260200160405190810160405280929190818152602001828054610720906112bd565b801561076d5780601f106107425761010080835404028352916020019161076d565b820191906000526020600020905b81548152906001019060200180831161075057829003601f168201915b50505050508152602001600582018054610786906112bd565b80601f01602080910402602001604051908101604052809291908181526020018280546107b2906112bd565b80156107ff5780601f106107d4576101008083540402835291602001916107ff565b820191906000526020600020905b8154815290600101906020018083116107e257829003601f168201915b505050505081526020016006820160009054906101000a900473ffffffffffffffffffffffffffffffffffffffff1673ffffffffffffffffffffffffffffffffffffffff1673ffffffffffffffffffffffffffffffffffffffff16815250509050806000015181602001518260400151836060015184608001518560a001519650965096509650965096505091939550919395565b6000600260003373ffffffffffffffffffffffffffffffffffffffff1673ffffffffffffffffffffffffffffffffffffffff16815260200190815260200160002054905090565b606080606080606080600260003373ffffffffffffffffffffffffffffffffffffffff1673ffffffffffffffffffffffffffffffffffffffff168152602001908152602001600020548710610965576040517f08c379a000000000000000000000000000000000000000000000000000000000815260040161095c90611724565b60405180910390fd5b60008060003373ffffffffffffffffffffffffffffffffffffffff1673ffffffffffffffffffffffffffffffffffffffff16815260200190815260200160002088815481106109b7576109b66116a9565b5b90600052602060002090600702016040518060e00160405290816000820180546109e0906112bd565b80601f0160208091040260200160405190810160405280929190818152602001828054610a0c906112bd565b8015610a595780601f10610a2e57610100808354040283529160200191610a59565b820191906000526020600020905b815481529060010190602001808311610a3c57829003601f168201915b50505050508152602001600182018054610a72906112bd565b80601f0160208091040260200160405190810160405280929190818152602001828054610a9e906112bd565b8015610aeb5780601f10610ac057610100808354040283529160200191610aeb565b820191906000526020600020905b815481529060010190602001808311610ace57829003601f168201915b50505050508152602001600282018054610b04906112bd565b80601f0160208091040260200160405190810160405280929190818152602001828054610b30906112bd565b8015610b7d5780601f10610b5257610100808354040283529160200191610b7d565b820191906000526020600020905b815481529060010190602001808311610b6057829003601f168201915b50505050508152602001600382018054610b96906112bd565b80601f0160208091040260200160405190810160405280929190818152602001828054610bc2906112bd565b8015610c0f5780601f10610be457610100808354040283529160200191610c0f565b820191906000526020600020905b815481529060010190602001808311610bf257829003601f168201915b50505050508152602001600482018054610c28906112bd565b80601f0160208091040260200160405190810160405280929190818152602001828054610c54906112bd565b8015610ca15780601f10610c7657610100808354040283529160200191610ca1565b820191906000526020600020905b815481529060010190602001808311610c8457829003601f168201915b50505050508152602001600582018054610cba906112bd565b80601f0160208091040260200160405190810160405280929190818152602001828054610ce6906112bd565b8015610d335780601f10610d0857610100808354040283529160200191610d33565b820191906000526020600020905b815481529060010190602001808311610d1657829003601f168201915b505050505081526020016006820160009054906101000a900473ffffffffffffffffffffffffffffffffffffffff1673ffffffffffffffffffffffffffffffffffffffff1673ffffffffffffffffffffffffffffffffffffffff16815250509050806000015181602001518260400151836060015184608001518560a001519650965096509650965096505091939550919395565b6000604051905090565b600080fd5b600080fd5b600080fd5b600080fd5b6000601f19601f8301169050919050565b7f4e487b7100000000000000000000000000000000000000000000000000000000600052604160045260246000fd5b610e2f82610de6565b810181811067ffffffffffffffff82111715610e4e57610e4d610df7565b5b80604052505050565b6000610e61610dc8565b9050610e6d8282610e26565b919050565b600067ffffffffffffffff821115610e8d57610e8c610df7565b5b610e9682610de6565b9050602081019050919050565b82818337600083830152505050565b6000610ec5610ec084610e72565b610e57565b905082815260208101848484011115610ee157610ee0610de1565b5b610eec848285610ea3565b509392505050565b600082601f830112610f0957610f08610ddc565b5b8135610f19848260208601610eb2565b91505092915050565b600073ffffffffffffffffffffffffffffffffffffffff82169050919050565b6000610f4d82610f22565b9050919050565b610f5d81610f42565b8114610f6857600080fd5b50565b600081359050610f7a81610f54565b92915050565b600080600080600080600060e0888a031215610f9f57610f9e610dd2565b5b600088013567ffffffffffffffff811115610fbd57610fbc610dd7565b5b610fc98a828b01610ef4565b975050602088013567ffffffffffffffff811115610fea57610fe9610dd7565b5b610ff68a828b01610ef4565b965050604088013567ffffffffffffffff81111561101757611016610dd7565b5b6110238a828b01610ef4565b955050606088013567ffffffffffffffff81111561104457611043610dd7565b5b6110508a828b01610ef4565b945050608088013567ffffffffffffffff81111561107157611070610dd7565b5b61107d8a828b01610ef4565b93505060a088013567ffffffffffffffff81111561109e5761109d610dd7565b5b6110aa8a828b01610ef4565b92505060c06110bb8a828b01610f6b565b91505092959891949750929550565b6000602082840312156110e0576110df610dd2565b5b60006110ee84828501610f6b565b91505092915050565b600081519050919050565b600082825260208201905092915050565b60005b83811015611131578082015181840152602081019050611116565b60008484015250505050565b6000611148826110f7565b6111528185611102565b9350611162818560208601611113565b61116b81610de6565b840191505092915050565b600060c0820190508181036000830152611190818961113d565b905081810360208301526111a4818861113d565b905081810360408301526111b8818761113d565b905081810360608301526111cc818661113d565b905081810360808301526111e0818561113d565b905081810360a08301526111f4818461113d565b9050979650505050505050565b6000819050919050565b61121481611201565b82525050565b600060208201905061122f600083018461120b565b92915050565b61123e81611201565b811461124957600080fd5b50565b60008135905061125b81611235565b92915050565b60006020828403121561127757611276610dd2565b5b60006112858482850161124c565b91505092915050565b7f4e487b7100000000000000000000000000000000000000000000000000000000600052602260045260246000fd5b600060028204905060018216806112d557607f821691505b6020821081036112e8576112e761128e565b5b50919050565b60008190508160005260206000209050919050565b60006020601f8301049050919050565b600082821b905092915050565b6000600883026113507fffffffffffffffffffffffffffffffffffffffffffffffffffffffffffffffff82611313565b61135a8683611313565b95508019841693508086168417925050509392505050565b6000819050919050565b600061139761139261138d84611201565b611372565b611201565b9050919050565b6000819050919050565b6113b18361137c565b6113c56113bd8261139e565b848454611320565b825550505050565b600090565b6113da6113cd565b6113e58184846113a8565b505050565b5b81811015611409576113fe6000826113d2565b6001810190506113eb565b5050565b601f82111561144e5761141f816112ee565b61142884611303565b81016020851015611437578190505b61144b61144385611303565b8301826113ea565b50505b505050565b600082821c905092915050565b600061147160001984600802611453565b1980831691505092915050565b600061148a8383611460565b9150826002028217905092915050565b6114a3826110f7565b67ffffffffffffffff8111156114bc576114bb610df7565b5b6114c682546112bd565b6114d182828561140d565b600060209050601f83116001811461150457600084156114f2578287015190505b6114fc858261147e565b865550611564565b601f198416611512866112ee565b60005b8281101561153a57848901518255600182019150602085019450602081019050611515565b868310156115575784890151611553601f891682611460565b8355505b6001600288020188555050505b505050505050565b7f4e487b7100000000000000000000000000000000000000000000000000000000600052601160045260246000fd5b60006115a682611201565b91506115b183611201565b92508282039050818111156115c9576115c861156c565b5b92915050565b60006115da82611201565b91507fffffffffffffffffffffffffffffffffffffffffffffffffffffffffffffffff820361160c5761160b61156c565b5b600182019050919050565b7f4e6f207265636f72647320666f756e6420666f7220746869732070617469656e60008201527f7400000000000000000000000000000000000000000000000000000000000000602082015250565b6000611673602183611102565b915061167e82611617565b604082019050919050565b600060208201905081810360008301526116a281611666565b9050919050565b7f4e487b7100000000000000000000000000000000000000000000000000000000600052603260045260246000fd5b7f496e646578206f7574206f6620626f756e647300000000000000000000000000600082015250565b600061170e601383611102565b9150611719826116d8565b602082019050919050565b6000602082019050818103600083015261173d81611701565b905091905056fea2646970667358221220cb275bf4f3ab5812cde00fc7f9e1df16d0a7a81b1f58e877c50d10f671d97ea664736f6c63430008130033",
  "immutableReferences": {},
  "source": "// SPDX-License-Identifier: MIT\r\npragma solidity ^0.8.19;\r\n\r\ncontract HealthRecord {\r\n    struct HealthData {\r\n        string timestamp;\r\n        string temperature;\r\n        string heartRate;\r\n        string spo2;\r\n        string systolic;\r\n        string diastolic;\r\n        address wallet;\r\n    }\r\n\r\n    // Mapping from wallet address to array of health records\r\n    mapping(address => HealthData[]) private patientRecords;\r\n    \r\n    // Mapping to track the latest record index for each patient\r\n    mapping(address => uint256) private latestRecordIndex;\r\n    \r\n    // Mapping to track total records for each patient\r\n    mapping(address => uint256) private totalRecords;\r\n\r\n    function addHealthRecord(\r\n        string memory _timestamp,\r\n        string memory _temperature,\r\n        string memory _heartRate,\r\n        string memory _spo2,\r\n        string memory _systolic,\r\n        string memory _diastolic,\r\n        address _wallet\r\n    ) public {\r\n        // Create new health record\r\n        HealthData memory newRecord = HealthData({\r\n            timestamp: _timestamp,\r\n            temperature: _temperature,\r\n            heartRate: _heartRate,\r\n            spo2: _spo2,\r\n            systolic: _systolic,\r\n            diastolic: _diastolic,\r\n            wallet: _wallet\r\n        });\r\n\r\n        // Add record to patient's records array\r\n        patientRecords[_wallet].push(newRecord);\r\n        \r\n        // Update latest record index and total records\r\n        latestRecordIndex[_wallet] = patientRecords[_wallet].length - 1;\r\n        totalRecords[_wallet]++;\r\n    }\r\n\r\n    function getLatestRecord(address _wallet) public view returns (\r\n        string memory timestamp,\r\n        string memory temperature,\r\n        string memory heartRate,\r\n        string memory spo2,\r\n        string memory systolic,\r\n        string memory diastolic\r\n        \r\n    ) {\r\n        // Check if patient has any records\r\n        require(totalRecords[_wallet] > 0, \"No records found for this patient\");\r\n\r\n        // Get the latest record\r\n        HealthData memory latest = patientRecords[_wallet][latestRecordIndex[msg.sender]];\r\n\r\n        return (\r\n            latest.timestamp,\r\n            latest.temperature,\r\n            latest.heartRate,\r\n            latest.spo2,\r\n            latest.systolic,\r\n            latest.diastolic\r\n        );\r\n    }\r\n\r\n    function getRecordCount() public view returns (uint256) {\r\n        return totalRecords[msg.sender];\r\n    }\r\n\r\n    // Optional: Get record by index\r\n    function getRecordByIndex(uint256 index) public view returns (\r\n        string memory timestamp,\r\n        string memory temperature,\r\n        string memory heartRate,\r\n        string memory spo2,\r\n        string memory systolic,\r\n        string memory diastolic\r\n    ) {\r\n        require(index < totalRecords[msg.sender], \"Index out of bounds\");\r\n        \r\n        HealthData memory record = patientRecords[msg.sender][index];\r\n        \r\n        return (\r\n            record.timestamp,\r\n            record.temperature,\r\n            record.heartRate,\r\n            record.spo2,\r\n            record.systolic,\r\n            record.diastolic\r\n        );\r\n    }\r\n}\r\n",
  "sourcePath": "C:\\Users\\HP\\Desktop\\MLEW\\MLEW-IoT-based-Oxygen-Level-monitoring-circuit-for-patient\\contracts\\HealthRecord.sol",
  "compiler": {
    "name": "solc",
    "version": "0.8.19+commit.7dd6d404.Emscripten.clang"
  },
  "schemaVersion": "3.4.16",
  "updatedAt": "2025-03-15T07:01:31.431Z",
  "networkType": "ethereum",
  "devdoc": {
    "kind": "dev",
    "methods": {},
    "version": 1
  },
  "userdoc": {
    "kind": "user",
    "methods": {},
    "version": 1
  }
}