{
  "contractName": "HealthRecord",
  "abi": [
    {
      "anonymous": false,
      "inputs": [
        {
          "indexed": false,
          "internalType": "string",
          "name": "deviceId",
          "type": "string"
        },
        {
          "indexed": false,
          "internalType": "string",
          "name": "alertType",
          "type": "string"
        }
      ],
      "name": "AlertGenerated",
      "type": "event"
    },
    {
      "anonymous": false,
      "inputs": [
        {
          "indexed": false,
          "internalType": "string",
          "name": "deviceId",
          "type": "string"
        },
        {
          "indexed": false,
          "internalType": "uint256",
          "name": "timestamp",
          "type": "uint256"
        }
      ],
      "name": "NewHealthData",
      "type": "event"
    },
    {
      "inputs": [
        {
          "internalType": "string",
          "name": "",
          "type": "string"
        },
        {
          "internalType": "uint256",
          "name": "",
          "type": "uint256"
        }
      ],
      "name": "deviceAlerts",
      "outputs": [
        {
          "internalType": "string",
          "name": "alertType",
          "type": "string"
        },
        {
          "internalType": "string",
          "name": "message",
          "type": "string"
        },
        {
          "internalType": "uint256",
          "name": "timestamp",
          "type": "uint256"
        }
      ],
      "stateMutability": "view",
      "type": "function",
      "constant": true
    },
    {
      "inputs": [
        {
          "internalType": "string",
          "name": "",
          "type": "string"
        },
        {
          "internalType": "uint256",
          "name": "",
          "type": "uint256"
        }
      ],
      "name": "deviceRecords",
      "outputs": [
        {
          "internalType": "uint256",
          "name": "timestamp",
          "type": "uint256"
        },
        {
          "internalType": "uint32",
          "name": "temperature",
          "type": "uint32"
        },
        {
          "internalType": "uint32",
          "name": "heartRate",
          "type": "uint32"
        },
        {
          "internalType": "uint32",
          "name": "spo2",
          "type": "uint32"
        },
        {
          "internalType": "string",
          "name": "deviceId",
          "type": "string"
        }
      ],
      "stateMutability": "view",
      "type": "function",
      "constant": true
    },
    {
      "inputs": [
        {
          "internalType": "string",
          "name": "deviceId",
          "type": "string"
        },
        {
          "internalType": "uint32",
          "name": "temperature",
          "type": "uint32"
        },
        {
          "internalType": "uint32",
          "name": "heartRate",
          "type": "uint32"
        },
        {
          "internalType": "uint32",
          "name": "spo2",
          "type": "uint32"
        }
      ],
      "name": "recordHealthData",
      "outputs": [],
      "stateMutability": "nonpayable",
      "type": "function"
    },
    {
      "inputs": [
        {
          "internalType": "string",
          "name": "deviceId",
          "type": "string"
        }
      ],
      "name": "getLatestData",
      "outputs": [
        {
          "internalType": "uint256",
          "name": "",
          "type": "uint256"
        },
        {
          "internalType": "uint256",
          "name": "",
          "type": "uint256"
        },
        {
          "internalType": "uint256",
          "name": "",
          "type": "uint256"
        },
        {
          "internalType": "uint256",
          "name": "",
          "type": "uint256"
        }
      ],
      "stateMutability": "view",
      "type": "function",
      "constant": true
    }
  ],
  "bytecode": "0x608060405234801561001057600080fd5b506112e0806100206000396000f3fe608060405234801561001057600080fd5b506004361061004c5760003560e01c806304f996f914610051578063aeed5df21461006d578063c680dc321461009f578063d9927278146100d3575b600080fd5b61006b60048036038101906100669190610b35565b610106565b005b61008760048036038101906100829190610bee565b61026e565b60405161009693929190610cd8565b60405180910390f35b6100b960048036038101906100b49190610bee565b6103db565b6040516100ca959493929190610d2c565b60405180910390f35b6100ed60048036038101906100e89190610d86565b6104fc565b6040516100fd9493929190610dcf565b60405180910390f35b60006040518060a001604052804281526020018563ffffffff1681526020018463ffffffff1681526020018363ffffffff1681526020018681525090506000856040516101539190610e50565b90815260200160405180910390208190806001815401808255809150506001900390600052602060002090600302016000909190919091506000820151816000015560208201518160010160006101000a81548163ffffffff021916908363ffffffff16021790555060408201518160010160046101000a81548163ffffffff021916908363ffffffff16021790555060608201518160010160086101000a81548163ffffffff021916908363ffffffff160217905550608082015181600201908161021f9190611073565b50505061022e8585858561072b565b7f99b372e72c9a4d52db3f0bd32e44e2300e6c172faca759db835fb590c21d7b02854260405161025f929190611145565b60405180910390a15050505050565b60018280516020810182018051848252602083016020850120818352809550505050505081815481106102a057600080fd5b9060005260206000209060030201600091509150508060000180546102c490610e96565b80601f01602080910402602001604051908101604052809291908181526020018280546102f090610e96565b801561033d5780601f106103125761010080835404028352916020019161033d565b820191906000526020600020905b81548152906001019060200180831161032057829003601f168201915b50505050509080600101805461035290610e96565b80601f016020809104026020016040519081016040528092919081815260200182805461037e90610e96565b80156103cb5780601f106103a0576101008083540402835291602001916103cb565b820191906000526020600020905b8154815290600101906020018083116103ae57829003601f168201915b5050505050908060020154905083565b600082805160208101820180518482526020830160208501208183528095505050505050818154811061040d57600080fd5b9060005260206000209060030201600091509150508060000154908060010160009054906101000a900463ffffffff16908060010160049054906101000a900463ffffffff16908060010160089054906101000a900463ffffffff169080600201805461047990610e96565b80601f01602080910402602001604051908101604052809291908181526020018280546104a590610e96565b80156104f25780601f106104c7576101008083540402835291602001916104f2565b820191906000526020600020905b8154815290600101906020018083116104d557829003601f168201915b5050505050905085565b600080600080600080866040516105139190610e50565b90815260200160405180910390208054905011610565576040517f08c379a000000000000000000000000000000000000000000000000000000000815260040161055c906111c1565b60405180910390fd5b600080866040516105769190610e50565b908152602001604051809103902060016000886040516105969190610e50565b9081526020016040518091039020805490506105b29190611210565b815481106105c3576105c2611244565b5b90600052602060002090600302016040518060a0016040529081600082015481526020016001820160009054906101000a900463ffffffff1663ffffffff1663ffffffff1681526020016001820160049054906101000a900463ffffffff1663ffffffff1663ffffffff1681526020016001820160089054906101000a900463ffffffff1663ffffffff1663ffffffff16815260200160028201805461066890610e96565b80601f016020809104026020016040519081016040528092919081815260200182805461069490610e96565b80156106e15780601f106106b6576101008083540402835291602001916106e1565b820191906000526020600020905b8154815290600101906020018083116106c457829003601f168201915b505050505081525050905080600001518160200151826040015183606001518263ffffffff1692508163ffffffff1691508063ffffffff1690509450945094509450509193509193565b610ec48363ffffffff1611156107b1576107b0846040518060400160405280601081526020017f486967682054656d7065726174757265000000000000000000000000000000008152506040518060400160405280601e81526020017f54656d70657261747572652061626f7665206e6f726d616c2072616e676500008152506108c1565b5b60648263ffffffff16111561083657610835846040518060400160405280600f81526020017f48696768204865617274205261746500000000000000000000000000000000008152506040518060400160405280601d81526020017f486561727420726174652061626f7665206e6f726d616c2072616e67650000008152506108c1565b5b605f8163ffffffff1610156108bb576108ba846040518060400160405280600881526020017f4c6f772053704f320000000000000000000000000000000000000000000000008152506040518060400160405280601f81526020017f426c6f6f64206f787967656e2062656c6f77206e6f726d616c2072616e6765008152506108c1565b5b50505050565b600060405180606001604052808481526020018381526020014281525090506001846040516108f09190610e50565b9081526020016040518091039020819080600181540180825580915050600190039060005260206000209060030201600090919091909150600082015181600001908161093d9190611073565b5060208201518160010190816109539190611073565b506040820151816002015550507f77037e72f6e83b4eff63872d42eb2128a64c36104c2bbe90182e38f6f769e1998484604051610991929190611273565b60405180910390a150505050565b6000604051905090565b600080fd5b600080fd5b600080fd5b600080fd5b6000601f19601f8301169050919050565b7f4e487b7100000000000000000000000000000000000000000000000000000000600052604160045260246000fd5b610a06826109bd565b810181811067ffffffffffffffff82111715610a2557610a246109ce565b5b80604052505050565b6000610a3861099f565b9050610a4482826109fd565b919050565b600067ffffffffffffffff821115610a6457610a636109ce565b5b610a6d826109bd565b9050602081019050919050565b82818337600083830152505050565b6000610a9c610a9784610a49565b610a2e565b905082815260208101848484011115610ab857610ab76109b8565b5b610ac3848285610a7a565b509392505050565b600082601f830112610ae057610adf6109b3565b5b8135610af0848260208601610a89565b91505092915050565b600063ffffffff82169050919050565b610b1281610af9565b8114610b1d57600080fd5b50565b600081359050610b2f81610b09565b92915050565b60008060008060808587031215610b4f57610b4e6109a9565b5b600085013567ffffffffffffffff811115610b6d57610b6c6109ae565b5b610b7987828801610acb565b9450506020610b8a87828801610b20565b9350506040610b9b87828801610b20565b9250506060610bac87828801610b20565b91505092959194509250565b6000819050919050565b610bcb81610bb8565b8114610bd657600080fd5b50565b600081359050610be881610bc2565b92915050565b60008060408385031215610c0557610c046109a9565b5b600083013567ffffffffffffffff811115610c2357610c226109ae565b5b610c2f85828601610acb565b9250506020610c4085828601610bd9565b9150509250929050565b600081519050919050565b600082825260208201905092915050565b60005b83811015610c84578082015181840152602081019050610c69565b60008484015250505050565b6000610c9b82610c4a565b610ca58185610c55565b9350610cb5818560208601610c66565b610cbe816109bd565b840191505092915050565b610cd281610bb8565b82525050565b60006060820190508181036000830152610cf28186610c90565b90508181036020830152610d068185610c90565b9050610d156040830184610cc9565b949350505050565b610d2681610af9565b82525050565b600060a082019050610d416000830188610cc9565b610d4e6020830187610d1d565b610d5b6040830186610d1d565b610d686060830185610d1d565b8181036080830152610d7a8184610c90565b90509695505050505050565b600060208284031215610d9c57610d9b6109a9565b5b600082013567ffffffffffffffff811115610dba57610db96109ae565b5b610dc684828501610acb565b91505092915050565b6000608082019050610de46000830187610cc9565b610df16020830186610cc9565b610dfe6040830185610cc9565b610e0b6060830184610cc9565b95945050505050565b600081905092915050565b6000610e2a82610c4a565b610e348185610e14565b9350610e44818560208601610c66565b80840191505092915050565b6000610e5c8284610e1f565b915081905092915050565b7f4e487b7100000000000000000000000000000000000000000000000000000000600052602260045260246000fd5b60006002820490506001821680610eae57607f821691505b602082108103610ec157610ec0610e67565b5b50919050565b60008190508160005260206000209050919050565b60006020601f8301049050919050565b600082821b905092915050565b600060088302610f297fffffffffffffffffffffffffffffffffffffffffffffffffffffffffffffffff82610eec565b610f338683610eec565b95508019841693508086168417925050509392505050565b6000819050919050565b6000610f70610f6b610f6684610bb8565b610f4b565b610bb8565b9050919050565b6000819050919050565b610f8a83610f55565b610f9e610f9682610f77565b848454610ef9565b825550505050565b600090565b610fb3610fa6565b610fbe818484610f81565b505050565b5b81811015610fe257610fd7600082610fab565b600181019050610fc4565b5050565b601f82111561102757610ff881610ec7565b61100184610edc565b81016020851015611010578190505b61102461101c85610edc565b830182610fc3565b50505b505050565b600082821c905092915050565b600061104a6000198460080261102c565b1980831691505092915050565b60006110638383611039565b9150826002028217905092915050565b61107c82610c4a565b67ffffffffffffffff811115611095576110946109ce565b5b61109f8254610e96565b6110aa828285610fe6565b600060209050601f8311600181146110dd57600084156110cb578287015190505b6110d58582611057565b86555061113d565b601f1984166110eb86610ec7565b60005b82811015611113578489015182556001820191506020850194506020810190506110ee565b86831015611130578489015161112c601f891682611039565b8355505b6001600288020188555050505b505050505050565b6000604082019050818103600083015261115f8185610c90565b905061116e6020830184610cc9565b9392505050565b7f4e6f206461746120666f756e6400000000000000000000000000000000000000600082015250565b60006111ab600d83610c55565b91506111b682611175565b602082019050919050565b600060208201905081810360008301526111da8161119e565b9050919050565b7f4e487b7100000000000000000000000000000000000000000000000000000000600052601160045260246000fd5b600061121b82610bb8565b915061122683610bb8565b925082820390508181111561123e5761123d6111e1565b5b92915050565b7f4e487b7100000000000000000000000000000000000000000000000000000000600052603260045260246000fd5b6000604082019050818103600083015261128d8185610c90565b905081810360208301526112a18184610c90565b9050939250505056fea264697066735822122006d929cc1cb56049dbb86317ca9478c94a9a61353a4c122b17e0683667c4b41664736f6c63430008130033",
  "immutableReferences": {},
  "source": "// SPDX-License-Identifier: MIT\r\npragma solidity ^0.8.19;\r\n\r\ncontract HealthRecord {\r\n    struct HealthData {\r\n        uint256 timestamp;\r\n        uint32 temperature;  // Stored as temperature * 100\r\n        uint32 heartRate;\r\n        uint32 spo2;\r\n        string deviceId;\r\n    }\r\n    \r\n    struct Alert {\r\n        string alertType;\r\n        string message;\r\n        uint256 timestamp;\r\n    }\r\n    \r\n    mapping(string => HealthData[]) public deviceRecords;\r\n    mapping(string => Alert[]) public deviceAlerts;\r\n    \r\n    event NewHealthData(string deviceId, uint256 timestamp);\r\n    event AlertGenerated(string deviceId, string alertType);\r\n    \r\n    // Store health data\r\n    function recordHealthData(\r\n        string memory deviceId,\r\n        uint32 temperature,\r\n        uint32 heartRate,\r\n        uint32 spo2\r\n    ) public {\r\n        HealthData memory newData = HealthData(\r\n            block.timestamp,\r\n            temperature,\r\n            heartRate,\r\n            spo2,\r\n            deviceId\r\n        );\r\n        \r\n        deviceRecords[deviceId].push(newData);\r\n        \r\n        // Check for alerts\r\n        checkVitalSigns(deviceId, temperature, heartRate, spo2);\r\n        \r\n        emit NewHealthData(deviceId, block.timestamp);\r\n    }\r\n    \r\n    // Check vital signs and generate alerts\r\n    function checkVitalSigns(\r\n        string memory deviceId,\r\n        uint32 temperature,\r\n        uint32 heartRate,\r\n        uint32 spo2\r\n    ) private {\r\n        if (temperature > 3780) { // 37.8C\r\n            generateAlert(deviceId, \"High Temperature\", \"Temperature above normal range\");\r\n        }\r\n        if (heartRate > 100) {\r\n            generateAlert(deviceId, \"High Heart Rate\", \"Heart rate above normal range\");\r\n        }\r\n        if (spo2 < 95) {\r\n            generateAlert(deviceId, \"Low SpO2\", \"Blood oxygen below normal range\");\r\n        }\r\n    }\r\n    \r\n    // Generate alert\r\n    function generateAlert(\r\n        string memory deviceId,\r\n        string memory alertType,\r\n        string memory message\r\n    ) private {\r\n        Alert memory newAlert = Alert(alertType, message, block.timestamp);\r\n        deviceAlerts[deviceId].push(newAlert);\r\n        emit AlertGenerated(deviceId, alertType);\r\n    }\r\n    \r\n    // Get latest health data for a device\r\n    function getLatestData(string memory deviceId) \r\n        public \r\n        view \r\n        returns (uint256, uint256, uint256, uint256) \r\n    {\r\n        require(deviceRecords[deviceId].length > 0, \"No data found\");\r\n        HealthData memory latest = deviceRecords[deviceId][deviceRecords[deviceId].length - 1];\r\n        return (\r\n            latest.timestamp,\r\n            latest.temperature,\r\n            latest.heartRate,\r\n            latest.spo2\r\n        );\r\n    }\r\n} ",
  "sourcePath": "C:\\Users\\HP\\Desktop\\MLEW-IoT-based-Oxygen-Level-monitoring-circuit-for-patient\\contracts\\HealthRecord.sol",
  "compiler": {
    "name": "solc",
    "version": "0.8.19+commit.7dd6d404.Emscripten.clang"
  },
  "schemaVersion": "3.4.16",
  "updatedAt": "2025-03-14T10:53:02.475Z",
  "networkType": "ethereum",
  "devdoc": {
    "kind": "dev",
    "methods": {},
    "version": 1
  },
  "userdoc": {
    "kind": "user",
    "methods": {},
    "version": 1
  }
}