{
  "contractName": "HealthRecord",
  "abi": [
    {
      "anonymous": false,
      "inputs": [
        {
          "indexed": false,
          "internalType": "string",
          "name": "deviceId",
          "type": "string"
        },
        {
          "indexed": false,
          "internalType": "string",
          "name": "alertType",
          "type": "string"
        }
      ],
      "name": "AlertGenerated",
      "type": "event"
    },
    {
      "anonymous": false,
      "inputs": [
        {
          "indexed": false,
          "internalType": "string",
          "name": "deviceId",
          "type": "string"
        },
        {
          "indexed": false,
          "internalType": "uint256",
          "name": "timestamp",
          "type": "uint256"
        }
      ],
      "name": "NewHealthData",
      "type": "event"
    },
    {
      "inputs": [
        {
          "internalType": "string",
          "name": "",
          "type": "string"
        },
        {
          "internalType": "uint256",
          "name": "",
          "type": "uint256"
        }
      ],
      "name": "deviceAlerts",
      "outputs": [
        {
          "internalType": "string",
          "name": "alertType",
          "type": "string"
        },
        {
          "internalType": "string",
          "name": "message",
          "type": "string"
        },
        {
          "internalType": "uint256",
          "name": "timestamp",
          "type": "uint256"
        }
      ],
      "stateMutability": "view",
      "type": "function",
      "constant": true
    },
    {
      "inputs": [
        {
          "internalType": "string",
          "name": "",
          "type": "string"
        },
        {
          "internalType": "uint256",
          "name": "",
          "type": "uint256"
        }
      ],
      "name": "deviceRecords",
      "outputs": [
        {
          "internalType": "uint256",
          "name": "timestamp",
          "type": "uint256"
        },
        {
          "internalType": "uint32",
          "name": "temperature",
          "type": "uint32"
        },
        {
          "internalType": "uint32",
          "name": "heartRate",
          "type": "uint32"
        },
        {
          "internalType": "uint32",
          "name": "spo2",
          "type": "uint32"
        },
        {
          "internalType": "string",
          "name": "deviceId",
          "type": "string"
        }
      ],
      "stateMutability": "view",
      "type": "function",
      "constant": true
    },
    {
      "inputs": [
        {
          "internalType": "string",
          "name": "deviceId",
          "type": "string"
        },
        {
          "internalType": "uint32",
          "name": "temperature",
          "type": "uint32"
        },
        {
          "internalType": "uint32",
          "name": "heartRate",
          "type": "uint32"
        },
        {
          "internalType": "uint32",
          "name": "spo2",
          "type": "uint32"
        }
      ],
      "name": "recordHealthData",
      "outputs": [],
      "stateMutability": "nonpayable",
      "type": "function"
    },
    {
      "inputs": [
        {
          "internalType": "string",
          "name": "deviceId",
          "type": "string"
        }
      ],
      "name": "getLatestData",
      "outputs": [
        {
          "components": [
            {
              "internalType": "uint256",
              "name": "timestamp",
              "type": "uint256"
            },
            {
              "internalType": "uint32",
              "name": "temperature",
              "type": "uint32"
            },
            {
              "internalType": "uint32",
              "name": "heartRate",
              "type": "uint32"
            },
            {
              "internalType": "uint32",
              "name": "spo2",
              "type": "uint32"
            },
            {
              "internalType": "string",
              "name": "deviceId",
              "type": "string"
            }
          ],
          "internalType": "struct HealthRecord.HealthData",
          "name": "",
          "type": "tuple"
        }
      ],
      "stateMutability": "view",
      "type": "function",
      "constant": true
    }
  ],
  "bytecode": "0x608060405234801561001057600080fd5b506113a0806100206000396000f3fe608060405234801561001057600080fd5b506004361061004c5760003560e01c806304f996f914610051578063aeed5df21461006d578063c680dc321461009f578063d9927278146100d3575b600080fd5b61006b60048036038101906100669190610b3a565b610103565b005b61008760048036038101906100829190610bf3565b61026b565b60405161009693929190610cdd565b60405180910390f35b6100b960048036038101906100b49190610bf3565b6103d8565b6040516100ca959493929190610d31565b60405180910390f35b6100ed60048036038101906100e89190610d8b565b6104f9565b6040516100fa9190610eb2565b60405180910390f35b60006040518060a001604052804281526020018563ffffffff1681526020018463ffffffff1681526020018363ffffffff1681526020018681525090506000856040516101509190610f10565b90815260200160405180910390208190806001815401808255809150506001900390600052602060002090600302016000909190919091506000820151816000015560208201518160010160006101000a81548163ffffffff021916908363ffffffff16021790555060408201518160010160046101000a81548163ffffffff021916908363ffffffff16021790555060608201518160010160086101000a81548163ffffffff021916908363ffffffff160217905550608082015181600201908161021c9190611133565b50505061022b858585856106ef565b7f99b372e72c9a4d52db3f0bd32e44e2300e6c172faca759db835fb590c21d7b02854260405161025c929190611205565b60405180910390a15050505050565b600182805160208101820180518482526020830160208501208183528095505050505050818154811061029d57600080fd5b9060005260206000209060030201600091509150508060000180546102c190610f56565b80601f01602080910402602001604051908101604052809291908181526020018280546102ed90610f56565b801561033a5780601f1061030f5761010080835404028352916020019161033a565b820191906000526020600020905b81548152906001019060200180831161031d57829003601f168201915b50505050509080600101805461034f90610f56565b80601f016020809104026020016040519081016040528092919081815260200182805461037b90610f56565b80156103c85780601f1061039d576101008083540402835291602001916103c8565b820191906000526020600020905b8154815290600101906020018083116103ab57829003601f168201915b5050505050908060020154905083565b600082805160208101820180518482526020830160208501208183528095505050505050818154811061040a57600080fd5b9060005260206000209060030201600091509150508060000154908060010160009054906101000a900463ffffffff16908060010160049054906101000a900463ffffffff16908060010160089054906101000a900463ffffffff169080600201805461047690610f56565b80601f01602080910402602001604051908101604052809291908181526020018280546104a290610f56565b80156104ef5780601f106104c4576101008083540402835291602001916104ef565b820191906000526020600020905b8154815290600101906020018083116104d257829003601f168201915b5050505050905085565b610501610963565b600080836040516105129190610f10565b90815260200160405180910390208054905011610564576040517f08c379a000000000000000000000000000000000000000000000000000000000815260040161055b90611281565b60405180910390fd5b6000826040516105749190610f10565b908152602001604051809103902060016000846040516105949190610f10565b9081526020016040518091039020805490506105b091906112d0565b815481106105c1576105c0611304565b5b90600052602060002090600302016040518060a0016040529081600082015481526020016001820160009054906101000a900463ffffffff1663ffffffff1663ffffffff1681526020016001820160049054906101000a900463ffffffff1663ffffffff1663ffffffff1681526020016001820160089054906101000a900463ffffffff1663ffffffff1663ffffffff16815260200160028201805461066690610f56565b80601f016020809104026020016040519081016040528092919081815260200182805461069290610f56565b80156106df5780601f106106b4576101008083540402835291602001916106df565b820191906000526020600020905b8154815290600101906020018083116106c257829003601f168201915b5050505050815250509050919050565b610ec48363ffffffff16111561077557610774846040518060400160405280601081526020017f486967682054656d7065726174757265000000000000000000000000000000008152506040518060400160405280601e81526020017f54656d70657261747572652061626f7665206e6f726d616c2072616e67650000815250610885565b5b60648263ffffffff1611156107fa576107f9846040518060400160405280600f81526020017f48696768204865617274205261746500000000000000000000000000000000008152506040518060400160405280601d81526020017f486561727420726174652061626f7665206e6f726d616c2072616e6765000000815250610885565b5b605f8163ffffffff16101561087f5761087e846040518060400160405280600881526020017f4c6f772053704f320000000000000000000000000000000000000000000000008152506040518060400160405280601f81526020017f426c6f6f64206f787967656e2062656c6f77206e6f726d616c2072616e676500815250610885565b5b50505050565b600060405180606001604052808481526020018381526020014281525090506001846040516108b49190610f10565b908152602001604051809103902081908060018154018082558091505060019003906000526020600020906003020160009091909190915060008201518160000190816109019190611133565b5060208201518160010190816109179190611133565b506040820151816002015550507f77037e72f6e83b4eff63872d42eb2128a64c36104c2bbe90182e38f6f769e1998484604051610955929190611333565b60405180910390a150505050565b6040518060a0016040528060008152602001600063ffffffff168152602001600063ffffffff168152602001600063ffffffff168152602001606081525090565b6000604051905090565b600080fd5b600080fd5b600080fd5b600080fd5b6000601f19601f8301169050919050565b7f4e487b7100000000000000000000000000000000000000000000000000000000600052604160045260246000fd5b610a0b826109c2565b810181811067ffffffffffffffff82111715610a2a57610a296109d3565b5b80604052505050565b6000610a3d6109a4565b9050610a498282610a02565b919050565b600067ffffffffffffffff821115610a6957610a686109d3565b5b610a72826109c2565b9050602081019050919050565b82818337600083830152505050565b6000610aa1610a9c84610a4e565b610a33565b905082815260208101848484011115610abd57610abc6109bd565b5b610ac8848285610a7f565b509392505050565b600082601f830112610ae557610ae46109b8565b5b8135610af5848260208601610a8e565b91505092915050565b600063ffffffff82169050919050565b610b1781610afe565b8114610b2257600080fd5b50565b600081359050610b3481610b0e565b92915050565b60008060008060808587031215610b5457610b536109ae565b5b600085013567ffffffffffffffff811115610b7257610b716109b3565b5b610b7e87828801610ad0565b9450506020610b8f87828801610b25565b9350506040610ba087828801610b25565b9250506060610bb187828801610b25565b91505092959194509250565b6000819050919050565b610bd081610bbd565b8114610bdb57600080fd5b50565b600081359050610bed81610bc7565b92915050565b60008060408385031215610c0a57610c096109ae565b5b600083013567ffffffffffffffff811115610c2857610c276109b3565b5b610c3485828601610ad0565b9250506020610c4585828601610bde565b9150509250929050565b600081519050919050565b600082825260208201905092915050565b60005b83811015610c89578082015181840152602081019050610c6e565b60008484015250505050565b6000610ca082610c4f565b610caa8185610c5a565b9350610cba818560208601610c6b565b610cc3816109c2565b840191505092915050565b610cd781610bbd565b82525050565b60006060820190508181036000830152610cf78186610c95565b90508181036020830152610d0b8185610c95565b9050610d1a6040830184610cce565b949350505050565b610d2b81610afe565b82525050565b600060a082019050610d466000830188610cce565b610d536020830187610d22565b610d606040830186610d22565b610d6d6060830185610d22565b8181036080830152610d7f8184610c95565b90509695505050505050565b600060208284031215610da157610da06109ae565b5b600082013567ffffffffffffffff811115610dbf57610dbe6109b3565b5b610dcb84828501610ad0565b91505092915050565b610ddd81610bbd565b82525050565b610dec81610afe565b82525050565b600082825260208201905092915050565b6000610e0e82610c4f565b610e188185610df2565b9350610e28818560208601610c6b565b610e31816109c2565b840191505092915050565b600060a083016000830151610e546000860182610dd4565b506020830151610e676020860182610de3565b506040830151610e7a6040860182610de3565b506060830151610e8d6060860182610de3565b5060808301518482036080860152610ea58282610e03565b9150508091505092915050565b60006020820190508181036000830152610ecc8184610e3c565b905092915050565b600081905092915050565b6000610eea82610c4f565b610ef48185610ed4565b9350610f04818560208601610c6b565b80840191505092915050565b6000610f1c8284610edf565b915081905092915050565b7f4e487b7100000000000000000000000000000000000000000000000000000000600052602260045260246000fd5b60006002820490506001821680610f6e57607f821691505b602082108103610f8157610f80610f27565b5b50919050565b60008190508160005260206000209050919050565b60006020601f8301049050919050565b600082821b905092915050565b600060088302610fe97fffffffffffffffffffffffffffffffffffffffffffffffffffffffffffffffff82610fac565b610ff38683610fac565b95508019841693508086168417925050509392505050565b6000819050919050565b600061103061102b61102684610bbd565b61100b565b610bbd565b9050919050565b6000819050919050565b61104a83611015565b61105e61105682611037565b848454610fb9565b825550505050565b600090565b611073611066565b61107e818484611041565b505050565b5b818110156110a25761109760008261106b565b600181019050611084565b5050565b601f8211156110e7576110b881610f87565b6110c184610f9c565b810160208510156110d0578190505b6110e46110dc85610f9c565b830182611083565b50505b505050565b600082821c905092915050565b600061110a600019846008026110ec565b1980831691505092915050565b600061112383836110f9565b9150826002028217905092915050565b61113c82610c4f565b67ffffffffffffffff811115611155576111546109d3565b5b61115f8254610f56565b61116a8282856110a6565b600060209050601f83116001811461119d576000841561118b578287015190505b6111958582611117565b8655506111fd565b601f1984166111ab86610f87565b60005b828110156111d3578489015182556001820191506020850194506020810190506111ae565b868310156111f057848901516111ec601f8916826110f9565b8355505b6001600288020188555050505b505050505050565b6000604082019050818103600083015261121f8185610c95565b905061122e6020830184610cce565b9392505050565b7f4e6f206461746120666f756e6400000000000000000000000000000000000000600082015250565b600061126b600d83610c5a565b915061127682611235565b602082019050919050565b6000602082019050818103600083015261129a8161125e565b9050919050565b7f4e487b7100000000000000000000000000000000000000000000000000000000600052601160045260246000fd5b60006112db82610bbd565b91506112e683610bbd565b92508282039050818111156112fe576112fd6112a1565b5b92915050565b7f4e487b7100000000000000000000000000000000000000000000000000000000600052603260045260246000fd5b6000604082019050818103600083015261134d8185610c95565b905081810360208301526113618184610c95565b9050939250505056fea2646970667358221220cfda0b95fe75fc3b1d52e8e9d661cc174926d8675fb5fefc7311c937e12426fc64736f6c63430008130033",
  "immutableReferences": {},
  "source": "// SPDX-License-Identifier: MIT\r\npragma solidity ^0.8.19;\r\n\r\ncontract HealthRecord {\r\n    struct HealthData {\r\n        uint256 timestamp;\r\n        uint32 temperature;  // Stored as temperature * 100\r\n        uint32 heartRate;\r\n        uint32 spo2;\r\n        string deviceId;\r\n    }\r\n    \r\n    struct Alert {\r\n        string alertType;\r\n        string message;\r\n        uint256 timestamp;\r\n    }\r\n    \r\n    mapping(string => HealthData[]) public deviceRecords;\r\n    mapping(string => Alert[]) public deviceAlerts;\r\n    \r\n    event NewHealthData(string deviceId, uint256 timestamp);\r\n    event AlertGenerated(string deviceId, string alertType);\r\n    \r\n    // Store health data\r\n    function recordHealthData(\r\n        string memory deviceId,\r\n        uint32 temperature,\r\n        uint32 heartRate,\r\n        uint32 spo2\r\n    ) public {\r\n        HealthData memory newData = HealthData(\r\n            block.timestamp,\r\n            temperature,\r\n            heartRate,\r\n            spo2,\r\n            deviceId\r\n        );\r\n        \r\n        deviceRecords[deviceId].push(newData);\r\n        \r\n        // Check for alerts\r\n        checkVitalSigns(deviceId, temperature, heartRate, spo2);\r\n        \r\n        emit NewHealthData(deviceId, block.timestamp);\r\n    }\r\n    \r\n    // Check vital signs and generate alerts\r\n    function checkVitalSigns(\r\n        string memory deviceId,\r\n        uint32 temperature,\r\n        uint32 heartRate,\r\n        uint32 spo2\r\n    ) private {\r\n        if (temperature > 3780) { // 37.8C\r\n            generateAlert(deviceId, \"High Temperature\", \"Temperature above normal range\");\r\n        }\r\n        if (heartRate > 100) {\r\n            generateAlert(deviceId, \"High Heart Rate\", \"Heart rate above normal range\");\r\n        }\r\n        if (spo2 < 95) {\r\n            generateAlert(deviceId, \"Low SpO2\", \"Blood oxygen below normal range\");\r\n        }\r\n    }\r\n    \r\n    // Generate alert\r\n    function generateAlert(\r\n        string memory deviceId,\r\n        string memory alertType,\r\n        string memory message\r\n    ) private {\r\n        Alert memory newAlert = Alert(alertType, message, block.timestamp);\r\n        deviceAlerts[deviceId].push(newAlert);\r\n        emit AlertGenerated(deviceId, alertType);\r\n    }\r\n    \r\n    // Get latest health data for a device\r\n    function getLatestData(string memory deviceId) \r\n        public \r\n        view \r\n        returns (HealthData memory) \r\n    {\r\n        require(deviceRecords[deviceId].length > 0, \"No data found\");\r\n        return deviceRecords[deviceId][deviceRecords[deviceId].length - 1];\r\n    }\r\n} ",
  "sourcePath": "D:\\users\\sudheer\\Desktop\\womes patient monitoring\\contracts\\HealthRecord.sol",
  "compiler": {
    "name": "solc",
    "version": "0.8.19+commit.7dd6d404.Emscripten.clang"
  },
  "schemaVersion": "3.4.16",
  "updatedAt": "2025-03-12T19:19:18.554Z",
  "networkType": "ethereum",
  "devdoc": {
    "kind": "dev",
    "methods": {},
    "version": 1
  },
  "userdoc": {
    "kind": "user",
    "methods": {},
    "version": 1
  }
}