{
  "contractName": "NotificationSystem",
  "abi": [
    {
      "inputs": [],
      "stateMutability": "nonpayable",
      "type": "constructor"
    },
    {
      "anonymous": false,
      "inputs": [
        {
          "indexed": false,
          "internalType": "string",
          "name": "email",
          "type": "string"
        },
        {
          "indexed": false,
          "internalType": "string",
          "name": "contactName",
          "type": "string"
        }
      ],
      "name": "ContactAdded",
      "type": "event"
    },
    {
      "anonymous": false,
      "inputs": [
        {
          "indexed": false,
          "internalType": "string",
          "name": "email",
          "type": "string"
        },
        {
          "indexed": false,
          "internalType": "string",
          "name": "contactName",
          "type": "string"
        }
      ],
      "name": "ContactDeleted",
      "type": "event"
    },
    {
      "anonymous": false,
      "inputs": [
        {
          "indexed": false,
          "internalType": "string",
          "name": "email",
          "type": "string"
        },
        {
          "indexed": false,
          "internalType": "string",
          "name": "contactName",
          "type": "string"
        }
      ],
      "name": "ContactUpdated",
      "type": "event"
    },
    {
      "anonymous": false,
      "inputs": [
        {
          "indexed": false,
          "internalType": "string",
          "name": "email",
          "type": "string"
        },
        {
          "indexed": false,
          "internalType": "string",
          "name": "message",
          "type": "string"
        },
        {
          "indexed": false,
          "internalType": "string",
          "name": "notificationType",
          "type": "string"
        }
      ],
      "name": "NotificationCreated",
      "type": "event"
    },
    {
      "anonymous": false,
      "inputs": [
        {
          "indexed": false,
          "internalType": "string",
          "name": "email",
          "type": "string"
        },
        {
          "indexed": false,
          "internalType": "bool",
          "name": "status",
          "type": "bool"
        }
      ],
      "name": "SubscriptionUpdated",
      "type": "event"
    },
    {
      "inputs": [],
      "name": "owner",
      "outputs": [
        {
          "internalType": "address",
          "name": "",
          "type": "address"
        }
      ],
      "stateMutability": "view",
      "type": "function",
      "constant": true
    },
    {
      "inputs": [
        {
          "internalType": "string",
          "name": "",
          "type": "string"
        },
        {
          "internalType": "uint256",
          "name": "",
          "type": "uint256"
        }
      ],
      "name": "userContacts",
      "outputs": [
        {
          "internalType": "string",
          "name": "name",
          "type": "string"
        },
        {
          "internalType": "string",
          "name": "phone",
          "type": "string"
        },
        {
          "internalType": "string",
          "name": "email",
          "type": "string"
        },
        {
          "internalType": "bool",
          "name": "exists",
          "type": "bool"
        }
      ],
      "stateMutability": "view",
      "type": "function",
      "constant": true
    },
    {
      "inputs": [
        {
          "internalType": "string",
          "name": "",
          "type": "string"
        },
        {
          "internalType": "uint256",
          "name": "",
          "type": "uint256"
        }
      ],
      "name": "userNotifications",
      "outputs": [
        {
          "internalType": "string",
          "name": "message",
          "type": "string"
        },
        {
          "internalType": "uint256",
          "name": "timestamp",
          "type": "uint256"
        },
        {
          "internalType": "bool",
          "name": "isRead",
          "type": "bool"
        },
        {
          "internalType": "string",
          "name": "notificationType",
          "type": "string"
        }
      ],
      "stateMutability": "view",
      "type": "function",
      "constant": true
    },
    {
      "inputs": [
        {
          "internalType": "string",
          "name": "",
          "type": "string"
        }
      ],
      "name": "userSubscriptions",
      "outputs": [
        {
          "internalType": "bool",
          "name": "",
          "type": "bool"
        }
      ],
      "stateMutability": "view",
      "type": "function",
      "constant": true
    },
    {
      "inputs": [
        {
          "internalType": "string",
          "name": "_email",
          "type": "string"
        },
        {
          "internalType": "string",
          "name": "_message",
          "type": "string"
        },
        {
          "internalType": "string",
          "name": "_type",
          "type": "string"
        }
      ],
      "name": "addNotification",
      "outputs": [],
      "stateMutability": "nonpayable",
      "type": "function"
    },
    {
      "inputs": [
        {
          "internalType": "string",
          "name": "_email",
          "type": "string"
        },
        {
          "internalType": "string",
          "name": "_name",
          "type": "string"
        },
        {
          "internalType": "string",
          "name": "_phone",
          "type": "string"
        },
        {
          "internalType": "string",
          "name": "_contactEmail",
          "type": "string"
        }
      ],
      "name": "addEmergencyContact",
      "outputs": [],
      "stateMutability": "nonpayable",
      "type": "function"
    },
    {
      "inputs": [
        {
          "internalType": "string",
          "name": "_email",
          "type": "string"
        },
        {
          "internalType": "uint256",
          "name": "_index",
          "type": "uint256"
        },
        {
          "internalType": "string",
          "name": "_name",
          "type": "string"
        },
        {
          "internalType": "string",
          "name": "_phone",
          "type": "string"
        },
        {
          "internalType": "string",
          "name": "_contactEmail",
          "type": "string"
        }
      ],
      "name": "updateEmergencyContact",
      "outputs": [],
      "stateMutability": "nonpayable",
      "type": "function"
    },
    {
      "inputs": [
        {
          "internalType": "string",
          "name": "_email",
          "type": "string"
        },
        {
          "internalType": "uint256",
          "name": "_index",
          "type": "uint256"
        }
      ],
      "name": "deleteEmergencyContact",
      "outputs": [],
      "stateMutability": "nonpayable",
      "type": "function"
    },
    {
      "inputs": [
        {
          "internalType": "string",
          "name": "_email",
          "type": "string"
        },
        {
          "internalType": "bool",
          "name": "_status",
          "type": "bool"
        }
      ],
      "name": "updateSubscription",
      "outputs": [],
      "stateMutability": "nonpayable",
      "type": "function"
    },
    {
      "inputs": [
        {
          "internalType": "string",
          "name": "_email",
          "type": "string"
        }
      ],
      "name": "getNotifications",
      "outputs": [
        {
          "internalType": "string[]",
          "name": "messages",
          "type": "string[]"
        },
        {
          "internalType": "uint256[]",
          "name": "timestamps",
          "type": "uint256[]"
        },
        {
          "internalType": "bool[]",
          "name": "readStatus",
          "type": "bool[]"
        },
        {
          "internalType": "string[]",
          "name": "types",
          "type": "string[]"
        }
      ],
      "stateMutability": "view",
      "type": "function",
      "constant": true
    },
    {
      "inputs": [
        {
          "internalType": "string",
          "name": "_email",
          "type": "string"
        }
      ],
      "name": "getEmergencyContacts",
      "outputs": [
        {
          "internalType": "string[]",
          "name": "names",
          "type": "string[]"
        },
        {
          "internalType": "string[]",
          "name": "phones",
          "type": "string[]"
        },
        {
          "internalType": "string[]",
          "name": "emails",
          "type": "string[]"
        }
      ],
      "stateMutability": "view",
      "type": "function",
      "constant": true
    },
    {
      "inputs": [
        {
          "internalType": "string",
          "name": "_email",
          "type": "string"
        },
        {
          "internalType": "uint256",
          "name": "_index",
          "type": "uint256"
        }
      ],
      "name": "markNotificationAsRead",
      "outputs": [],
      "stateMutability": "nonpayable",
      "type": "function"
    },
    {
      "inputs": [
        {
          "internalType": "string",
          "name": "_email",
          "type": "string"
        }
      ],
      "name": "isSubscribed",
      "outputs": [
        {
          "internalType": "bool",
          "name": "",
          "type": "bool"
        }
      ],
      "stateMutability": "view",
      "type": "function",
      "constant": true
    }
  ],
  "bytecode": "0x608060405234801561001057600080fd5b5033600360006101000a81548173ffffffffffffffffffffffffffffffffffffffff021916908373ffffffffffffffffffffffffffffffffffffffff160217905550612858806100616000396000f3fe608060405234801561001057600080fd5b50600436106100cf5760003560e01c80638da5cb5b1161008c578063c047099711610066578063c047099714610241578063ee72519b1461025d578063ee8b166b14610279578063ee9c32be14610295576100cf565b80638da5cb5b146101d4578063a8881eb9146101f2578063b3f273ea1461020e576100cf565b8063309b1b5b146100d457806336bbe85b146100f0578063372bff85146101225780634dc701531461015557806379e735fd146101885780638c917d68146101b8575b600080fd5b6100ee60048036038101906100e99190611891565b6102c5565b005b61010a60048036038101906101059190611938565b6103ce565b60405161011993929190611ac2565b60405180910390f35b61013c60048036038101906101379190611b44565b6107f1565b60405161014c9493929190611c14565b60405180910390f35b61016f600480360381019061016a9190611b44565b610971565b60405161017f9493929190611c67565b60405180910390f35b6101a2600480360381019061019d9190611938565b610b79565b6040516101af9190611cc1565b60405180910390f35b6101d260048036038101906101cd9190611cdc565b610baf565b005b6101dc610cc3565b6040516101e99190611df4565b60405180910390f35b61020c60048036038101906102079190611e0f565b610ce9565b005b61022860048036038101906102239190611938565b610e05565b6040516102389493929190612076565b60405180910390f35b61025b60048036038101906102569190611b44565b61122b565b005b61027760048036038101906102729190612103565b611571565b005b610293600480360381019061028e9190611b44565b6115e4565b005b6102af60048036038101906102aa9190611938565b6116a5565b6040516102bc9190611cc1565b60405180910390f35b600060405180608001604052808481526020014281526020016000151581526020018381525090506000846040516102fd919061219b565b9081526020016040518091039020819080600181540180825580915050600190039060005260206000209060040201600090919091909150600082015181600001908161034a91906123be565b506020820151816001015560408201518160020160006101000a81548160ff021916908315150217905550606082015181600301908161038a91906123be565b5050507ffd33a16281a8e2fbf27684e1fb7f3608d698ed3f24c69af868597d63ffc2aa248484846040516103c093929190612490565b60405180910390a150505050565b606080606060006001856040516103e5919061219b565b9081526020016040518091039020805480602002602001604051908101604052809291908181526020016000905b828210156106165783829060005260206000209060040201604051806080016040529081600082018054610446906121e1565b80601f0160208091040260200160405190810160405280929190818152602001828054610472906121e1565b80156104bf5780601f10610494576101008083540402835291602001916104bf565b820191906000526020600020905b8154815290600101906020018083116104a257829003601f168201915b505050505081526020016001820180546104d8906121e1565b80601f0160208091040260200160405190810160405280929190818152602001828054610504906121e1565b80156105515780601f1061052657610100808354040283529160200191610551565b820191906000526020600020905b81548152906001019060200180831161053457829003601f168201915b5050505050815260200160028201805461056a906121e1565b80601f0160208091040260200160405190810160405280929190818152602001828054610596906121e1565b80156105e35780601f106105b8576101008083540402835291602001916105e3565b820191906000526020600020905b8154815290600101906020018083116105c657829003601f168201915b505050505081526020016003820160009054906101000a900460ff16151515158152505081526020019060010190610413565b5050505090506000815190508067ffffffffffffffff81111561063c5761063b611766565b5b60405190808252806020026020018201604052801561066f57816020015b606081526020019060019003908161065a5790505b5094508067ffffffffffffffff81111561068c5761068b611766565b5b6040519080825280602002602001820160405280156106bf57816020015b60608152602001906001900390816106aa5790505b5093508067ffffffffffffffff8111156106dc576106db611766565b5b60405190808252806020026020018201604052801561070f57816020015b60608152602001906001900390816106fa5790505b50925060005b818110156107e7578281815181106107305761072f6124dc565b5b60200260200101516000015186828151811061074f5761074e6124dc565b5b602002602001018190525082818151811061076d5761076c6124dc565b5b60200260200101516020015185828151811061078c5761078b6124dc565b5b60200260200101819052508281815181106107aa576107a96124dc565b5b6020026020010151604001518482815181106107c9576107c86124dc565b5b602002602001018190525080806107df9061253a565b915050610715565b5050509193909250565b600082805160208101820180518482526020830160208501208183528095505050505050818154811061082357600080fd5b906000526020600020906004020160009150915050806000018054610847906121e1565b80601f0160208091040260200160405190810160405280929190818152602001828054610873906121e1565b80156108c05780601f10610895576101008083540402835291602001916108c0565b820191906000526020600020905b8154815290600101906020018083116108a357829003601f168201915b5050505050908060010154908060020160009054906101000a900460ff16908060030180546108ee906121e1565b80601f016020809104026020016040519081016040528092919081815260200182805461091a906121e1565b80156109675780601f1061093c57610100808354040283529160200191610967565b820191906000526020600020905b81548152906001019060200180831161094a57829003601f168201915b5050505050905084565b60018280516020810182018051848252602083016020850120818352809550505050505081815481106109a357600080fd5b9060005260206000209060040201600091509150508060000180546109c7906121e1565b80601f01602080910402602001604051908101604052809291908181526020018280546109f3906121e1565b8015610a405780601f10610a1557610100808354040283529160200191610a40565b820191906000526020600020905b815481529060010190602001808311610a2357829003601f168201915b505050505090806001018054610a55906121e1565b80601f0160208091040260200160405190810160405280929190818152602001828054610a81906121e1565b8015610ace5780601f10610aa357610100808354040283529160200191610ace565b820191906000526020600020905b815481529060010190602001808311610ab157829003601f168201915b505050505090806002018054610ae3906121e1565b80601f0160208091040260200160405190810160405280929190818152602001828054610b0f906121e1565b8015610b5c5780601f10610b3157610100808354040283529160200191610b5c565b820191906000526020600020905b815481529060010190602001808311610b3f57829003601f168201915b5050505050908060030160009054906101000a900460ff16905084565b6002818051602081018201805184825260208301602085012081835280955050505050506000915054906101000a900460ff1681565b60006040518060800160405280858152602001848152602001838152602001600115158152509050600185604051610be7919061219b565b90815260200160405180910390208190806001815401808255809150506001900390600052602060002090600402016000909190919091506000820151816000019081610c3491906123be565b506020820151816001019081610c4a91906123be565b506040820151816002019081610c6091906123be565b5060608201518160030160006101000a81548160ff02191690831515021790555050507f14c2e7f22714351d5caa624435bb5c250b77caab9f6862dd9327e248b26b7a628585604051610cb4929190612582565b60405180910390a15050505050565b600360009054906101000a900473ffffffffffffffffffffffffffffffffffffffff1681565b600185604051610cf9919061219b565b9081526020016040518091039020805490508410610d4c576040517f08c379a0000000000000000000000000000000000000000000000000000000008152600401610d4390612605565b60405180910390fd5b6000600186604051610d5e919061219b565b90815260200160405180910390208581548110610d7e57610d7d6124dc565b5b9060005260206000209060040201905083816000019081610d9f91906123be565b5082816001019081610db191906123be565b5081816002019081610dc391906123be565b507f1cdb4c76241e7d7f08cf679680406c0cd26d27ca74e70bdfd66ee45805cfc39b8685604051610df5929190612582565b60405180910390a1505050505050565b60608060608060008086604051610e1c919061219b565b9081526020016040518091039020805480602002602001604051908101604052809291908181526020016000905b82821015610fc55783829060005260206000209060040201604051806080016040529081600082018054610e7d906121e1565b80601f0160208091040260200160405190810160405280929190818152602001828054610ea9906121e1565b8015610ef65780601f10610ecb57610100808354040283529160200191610ef6565b820191906000526020600020905b815481529060010190602001808311610ed957829003601f168201915b50505050508152602001600182015481526020016002820160009054906101000a900460ff16151515158152602001600382018054610f34906121e1565b80601f0160208091040260200160405190810160405280929190818152602001828054610f60906121e1565b8015610fad5780601f10610f8257610100808354040283529160200191610fad565b820191906000526020600020905b815481529060010190602001808311610f9057829003601f168201915b50505050508152505081526020019060010190610e4a565b5050505090506000815190508067ffffffffffffffff811115610feb57610fea611766565b5b60405190808252806020026020018201604052801561101e57816020015b60608152602001906001900390816110095790505b5095508067ffffffffffffffff81111561103b5761103a611766565b5b6040519080825280602002602001820160405280156110695781602001602082028036833780820191505090505b5094508067ffffffffffffffff81111561108657611085611766565b5b6040519080825280602002602001820160405280156110b45781602001602082028036833780820191505090505b5093508067ffffffffffffffff8111156110d1576110d0611766565b5b60405190808252806020026020018201604052801561110457816020015b60608152602001906001900390816110ef5790505b50925060005b8181101561122157828181518110611125576111246124dc565b5b602002602001015160000151878281518110611144576111436124dc565b5b6020026020010181905250828181518110611162576111616124dc565b5b602002602001015160200151868281518110611181576111806124dc565b5b6020026020010181815250508281815181106111a05761119f6124dc565b5b6020026020010151604001518582815181106111bf576111be6124dc565b5b6020026020010190151590811515815250508281815181106111e4576111e36124dc565b5b602002602001015160600151848281518110611203576112026124dc565b5b602002602001018190525080806112199061253a565b91505061110a565b5050509193509193565b60018260405161123b919061219b565b908152602001604051809103902080549050811061128e576040517f08c379a000000000000000000000000000000000000000000000000000000000815260040161128590612605565b60405180910390fd5b60006001836040516112a0919061219b565b908152602001604051809103902082815481106112c0576112bf6124dc565b5b906000526020600020906004020160000180546112dc906121e1565b80601f0160208091040260200160405190810160405280929190818152602001828054611308906121e1565b80156113555780601f1061132a57610100808354040283529160200191611355565b820191906000526020600020905b81548152906001019060200180831161133857829003601f168201915b505050505090506001808460405161136d919061219b565b9081526020016040518091039020805490506113899190612625565b8210156114a8576001836040516113a0919061219b565b9081526020016040518091039020600180856040516113bf919061219b565b9081526020016040518091039020805490506113db9190612625565b815481106113ec576113eb6124dc565b5b906000526020600020906004020160018460405161140a919061219b565b9081526020016040518091039020838154811061142a576114296124dc565b5b90600052602060002090600402016000820181600001908161144c919061266f565b5060018201816001019081611461919061266f565b5060028201816002019081611476919061266f565b506003820160009054906101000a900460ff168160030160006101000a81548160ff0219169083151502179055509050505b6001836040516114b8919061219b565b90815260200160405180910390208054806114d6576114d5612757565b5b6001900381819060005260206000209060040201600080820160006114fb91906116da565b60018201600061150b91906116da565b60028201600061151b91906116da565b6003820160006101000a81549060ff0219169055505090557fae7964fba0be604ede392ff35cdbf6f7aa410857efdf72f5f29f2050a317b6458382604051611564929190612582565b60405180910390a1505050565b80600283604051611582919061219b565b908152602001604051809103902060006101000a81548160ff0219169083151502179055507fd092c32543edf67324cfad863c5e3e6c6b2e8c719f93e0d16b6c99e983ba8a8782826040516115d8929190612786565b60405180910390a15050565b6000826040516115f4919061219b565b9081526020016040518091039020805490508110611647576040517f08c379a000000000000000000000000000000000000000000000000000000000815260040161163e90612802565b60405180910390fd5b6001600083604051611659919061219b565b90815260200160405180910390208281548110611679576116786124dc565b5b906000526020600020906004020160020160006101000a81548160ff0219169083151502179055505050565b60006002826040516116b7919061219b565b908152602001604051809103902060009054906101000a900460ff169050919050565b5080546116e6906121e1565b6000825580601f106116f85750611717565b601f016020900490600052602060002090810190611716919061171a565b5b50565b5b8082111561173357600081600090555060010161171b565b5090565b6000604051905090565b600080fd5b600080fd5b600080fd5b600080fd5b6000601f19601f8301169050919050565b7f4e487b7100000000000000000000000000000000000000000000000000000000600052604160045260246000fd5b61179e82611755565b810181811067ffffffffffffffff821117156117bd576117bc611766565b5b80604052505050565b60006117d0611737565b90506117dc8282611795565b919050565b600067ffffffffffffffff8211156117fc576117fb611766565b5b61180582611755565b9050602081019050919050565b82818337600083830152505050565b600061183461182f846117e1565b6117c6565b9050828152602081018484840111156118505761184f611750565b5b61185b848285611812565b509392505050565b600082601f8301126118785761187761174b565b5b8135611888848260208601611821565b91505092915050565b6000806000606084860312156118aa576118a9611741565b5b600084013567ffffffffffffffff8111156118c8576118c7611746565b5b6118d486828701611863565b935050602084013567ffffffffffffffff8111156118f5576118f4611746565b5b61190186828701611863565b925050604084013567ffffffffffffffff81111561192257611921611746565b5b61192e86828701611863565b9150509250925092565b60006020828403121561194e5761194d611741565b5b600082013567ffffffffffffffff81111561196c5761196b611746565b5b61197884828501611863565b91505092915050565b600081519050919050565b600082825260208201905092915050565b6000819050602082019050919050565b600081519050919050565b600082825260208201905092915050565b60005b838110156119e75780820151818401526020810190506119cc565b60008484015250505050565b60006119fe826119ad565b611a0881856119b8565b9350611a188185602086016119c9565b611a2181611755565b840191505092915050565b6000611a3883836119f3565b905092915050565b6000602082019050919050565b6000611a5882611981565b611a62818561198c565b935083602082028501611a748561199d565b8060005b85811015611ab05784840389528151611a918582611a2c565b9450611a9c83611a40565b925060208a01995050600181019050611a78565b50829750879550505050505092915050565b60006060820190508181036000830152611adc8186611a4d565b90508181036020830152611af08185611a4d565b90508181036040830152611b048184611a4d565b9050949350505050565b6000819050919050565b611b2181611b0e565b8114611b2c57600080fd5b50565b600081359050611b3e81611b18565b92915050565b60008060408385031215611b5b57611b5a611741565b5b600083013567ffffffffffffffff811115611b7957611b78611746565b5b611b8585828601611863565b9250506020611b9685828601611b2f565b9150509250929050565b600082825260208201905092915050565b6000611bbc826119ad565b611bc68185611ba0565b9350611bd68185602086016119c9565b611bdf81611755565b840191505092915050565b611bf381611b0e565b82525050565b60008115159050919050565b611c0e81611bf9565b82525050565b60006080820190508181036000830152611c2e8187611bb1565b9050611c3d6020830186611bea565b611c4a6040830185611c05565b8181036060830152611c5c8184611bb1565b905095945050505050565b60006080820190508181036000830152611c818187611bb1565b90508181036020830152611c958186611bb1565b90508181036040830152611ca98185611bb1565b9050611cb86060830184611c05565b95945050505050565b6000602082019050611cd66000830184611c05565b92915050565b60008060008060808587031215611cf657611cf5611741565b5b600085013567ffffffffffffffff811115611d1457611d13611746565b5b611d2087828801611863565b945050602085013567ffffffffffffffff811115611d4157611d40611746565b5b611d4d87828801611863565b935050604085013567ffffffffffffffff811115611d6e57611d6d611746565b5b611d7a87828801611863565b925050606085013567ffffffffffffffff811115611d9b57611d9a611746565b5b611da787828801611863565b91505092959194509250565b600073ffffffffffffffffffffffffffffffffffffffff82169050919050565b6000611dde82611db3565b9050919050565b611dee81611dd3565b82525050565b6000602082019050611e096000830184611de5565b92915050565b600080600080600060a08688031215611e2b57611e2a611741565b5b600086013567ffffffffffffffff811115611e4957611e48611746565b5b611e5588828901611863565b9550506020611e6688828901611b2f565b945050604086013567ffffffffffffffff811115611e8757611e86611746565b5b611e9388828901611863565b935050606086013567ffffffffffffffff811115611eb457611eb3611746565b5b611ec088828901611863565b925050608086013567ffffffffffffffff811115611ee157611ee0611746565b5b611eed88828901611863565b9150509295509295909350565b600081519050919050565b600082825260208201905092915050565b6000819050602082019050919050565b611f2f81611b0e565b82525050565b6000611f418383611f26565b60208301905092915050565b6000602082019050919050565b6000611f6582611efa565b611f6f8185611f05565b9350611f7a83611f16565b8060005b83811015611fab578151611f928882611f35565b9750611f9d83611f4d565b925050600181019050611f7e565b5085935050505092915050565b600081519050919050565b600082825260208201905092915050565b6000819050602082019050919050565b611fed81611bf9565b82525050565b6000611fff8383611fe4565b60208301905092915050565b6000602082019050919050565b600061202382611fb8565b61202d8185611fc3565b935061203883611fd4565b8060005b838110156120695781516120508882611ff3565b975061205b8361200b565b92505060018101905061203c565b5085935050505092915050565b600060808201905081810360008301526120908187611a4d565b905081810360208301526120a48186611f5a565b905081810360408301526120b88185612018565b905081810360608301526120cc8184611a4d565b905095945050505050565b6120e081611bf9565b81146120eb57600080fd5b50565b6000813590506120fd816120d7565b92915050565b6000806040838503121561211a57612119611741565b5b600083013567ffffffffffffffff81111561213857612137611746565b5b61214485828601611863565b9250506020612155858286016120ee565b9150509250929050565b600081905092915050565b6000612175826119ad565b61217f818561215f565b935061218f8185602086016119c9565b80840191505092915050565b60006121a7828461216a565b915081905092915050565b7f4e487b7100000000000000000000000000000000000000000000000000000000600052602260045260246000fd5b600060028204905060018216806121f957607f821691505b60208210810361220c5761220b6121b2565b5b50919050565b60008190508160005260206000209050919050565b60006020601f8301049050919050565b600082821b905092915050565b6000600883026122747fffffffffffffffffffffffffffffffffffffffffffffffffffffffffffffffff82612237565b61227e8683612237565b95508019841693508086168417925050509392505050565b6000819050919050565b60006122bb6122b66122b184611b0e565b612296565b611b0e565b9050919050565b6000819050919050565b6122d5836122a0565b6122e96122e1826122c2565b848454612244565b825550505050565b600090565b6122fe6122f1565b6123098184846122cc565b505050565b5b8181101561232d576123226000826122f6565b60018101905061230f565b5050565b601f8211156123725761234381612212565b61234c84612227565b8101602085101561235b578190505b61236f61236785612227565b83018261230e565b50505b505050565b600082821c905092915050565b600061239560001984600802612377565b1980831691505092915050565b60006123ae8383612384565b9150826002028217905092915050565b6123c7826119ad565b67ffffffffffffffff8111156123e0576123df611766565b5b6123ea82546121e1565b6123f5828285612331565b600060209050601f8311600181146124285760008415612416578287015190505b61242085826123a2565b865550612488565b601f19841661243686612212565b60005b8281101561245e57848901518255600182019150602085019450602081019050612439565b8683101561247b5784890151612477601f891682612384565b8355505b6001600288020188555050505b505050505050565b600060608201905081810360008301526124aa8186611bb1565b905081810360208301526124be8185611bb1565b905081810360408301526124d28184611bb1565b9050949350505050565b7f4e487b7100000000000000000000000000000000000000000000000000000000600052603260045260246000fd5b7f4e487b7100000000000000000000000000000000000000000000000000000000600052601160045260246000fd5b600061254582611b0e565b91507fffffffffffffffffffffffffffffffffffffffffffffffffffffffffffffffff82036125775761257661250b565b5b600182019050919050565b6000604082019050818103600083015261259c8185611bb1565b905081810360208301526125b08184611bb1565b90509392505050565b7f496e76616c696420636f6e7461637420696e6465780000000000000000000000600082015250565b60006125ef601583611ba0565b91506125fa826125b9565b602082019050919050565b6000602082019050818103600083015261261e816125e2565b9050919050565b600061263082611b0e565b915061263b83611b0e565b92508282039050818111156126535761265261250b565b5b92915050565b600081549050612668816121e1565b9050919050565b81810361267d575050612755565b61268682612659565b67ffffffffffffffff81111561269f5761269e611766565b5b6126a982546121e1565b6126b4828285612331565b6000601f8311600181146126e357600084156126d1578287015490505b6126db85826123a2565b86555061274e565b601f1984166126f187612212565b96506126fc86612212565b60005b82811015612724578489015482556001820191506001850194506020810190506126ff565b86831015612741578489015461273d601f891682612384565b8355505b6001600288020188555050505b5050505050505b565b7f4e487b7100000000000000000000000000000000000000000000000000000000600052603160045260246000fd5b600060408201905081810360008301526127a08185611bb1565b90506127af6020830184611c05565b9392505050565b7f496e76616c6964206e6f74696669636174696f6e20696e646578000000000000600082015250565b60006127ec601a83611ba0565b91506127f7826127b6565b602082019050919050565b6000602082019050818103600083015261281b816127df565b905091905056fea26469706673582212207d4ab7ee9f1f80aebf9af69a754fbda3fb873cdf765f0c4f1dc19f20ca5faaa564736f6c63430008130033",
  "immutableReferences": {},
  "source": "// SPDX-License-Identifier: MIT\r\npragma solidity ^0.8.0;\r\n\r\ncontract NotificationSystem {\r\n    struct Notification {\r\n        string message;\r\n        uint256 timestamp;\r\n        bool isRead;\r\n        string notificationType;  // \"alert\", \"info\", \"warning\"\r\n    }\r\n\r\n    struct EmergencyContact {\r\n        string name;\r\n        string phone;\r\n        string email;\r\n        bool exists;\r\n    }\r\n\r\n    mapping(string => Notification[]) public userNotifications;\r\n    mapping(string => EmergencyContact[]) public userContacts;\r\n    mapping(string => bool) public userSubscriptions;\r\n    address public owner;\r\n\r\n    event NotificationCreated(string email, string message, string notificationType);\r\n    event ContactAdded(string email, string contactName);\r\n    event ContactUpdated(string email, string contactName);\r\n    event ContactDeleted(string email, string contactName);\r\n    event SubscriptionUpdated(string email, bool status);\r\n\r\n    constructor() {\r\n        owner = msg.sender;\r\n    }\r\n\r\n    modifier onlyOwner() {\r\n        require(msg.sender == owner, \"Only owner can call this function\");\r\n        _;\r\n    }\r\n\r\n    function addNotification(\r\n        string memory _email,\r\n        string memory _message,\r\n        string memory _type\r\n    ) public {\r\n        Notification memory newNotification = Notification({\r\n            message: _message,\r\n            timestamp: block.timestamp,\r\n            isRead: false,\r\n            notificationType: _type\r\n        });\r\n\r\n        userNotifications[_email].push(newNotification);\r\n        emit NotificationCreated(_email, _message, _type);\r\n    }\r\n\r\n    function addEmergencyContact(\r\n        string memory _email,\r\n        string memory _name,\r\n        string memory _phone,\r\n        string memory _contactEmail\r\n    ) public {\r\n        EmergencyContact memory newContact = EmergencyContact({\r\n            name: _name,\r\n            phone: _phone,\r\n            email: _contactEmail,\r\n            exists: true\r\n        });\r\n\r\n        userContacts[_email].push(newContact);\r\n        emit ContactAdded(_email, _name);\r\n    }\r\n\r\n    function updateEmergencyContact(\r\n        string memory _email,\r\n        uint256 _index,\r\n        string memory _name,\r\n        string memory _phone,\r\n        string memory _contactEmail\r\n    ) public {\r\n        require(_index < userContacts[_email].length, \"Invalid contact index\");\r\n        \r\n        EmergencyContact storage contact = userContacts[_email][_index];\r\n        contact.name = _name;\r\n        contact.phone = _phone;\r\n        contact.email = _contactEmail;\r\n        \r\n        emit ContactUpdated(_email, _name);\r\n    }\r\n\r\n    function deleteEmergencyContact(\r\n        string memory _email,\r\n        uint256 _index\r\n    ) public {\r\n        require(_index < userContacts[_email].length, \"Invalid contact index\");\r\n        \r\n        // Store the contact name for the event\r\n        string memory contactName = userContacts[_email][_index].name;\r\n        \r\n        // Move the last element to the deleted position\r\n        if (_index < userContacts[_email].length - 1) {\r\n            userContacts[_email][_index] = userContacts[_email][userContacts[_email].length - 1];\r\n        }\r\n        \r\n        // Remove the last element\r\n        userContacts[_email].pop();\r\n        \r\n        emit ContactDeleted(_email, contactName);\r\n    }\r\n\r\n    function updateSubscription(string memory _email, bool _status) public {\r\n        userSubscriptions[_email] = _status;\r\n        emit SubscriptionUpdated(_email, _status);\r\n    }\r\n\r\n    function getNotifications(string memory _email) public view returns (\r\n        string[] memory messages,\r\n        uint256[] memory timestamps,\r\n        bool[] memory readStatus,\r\n        string[] memory types\r\n    ) {\r\n        Notification[] memory notifications = userNotifications[_email];\r\n        uint256 length = notifications.length;\r\n\r\n        messages = new string[](length);\r\n        timestamps = new uint256[](length);\r\n        readStatus = new bool[](length);\r\n        types = new string[](length);\r\n\r\n        for (uint256 i = 0; i < length; i++) {\r\n            messages[i] = notifications[i].message;\r\n            timestamps[i] = notifications[i].timestamp;\r\n            readStatus[i] = notifications[i].isRead;\r\n            types[i] = notifications[i].notificationType;\r\n        }\r\n    }\r\n\r\n    function getEmergencyContacts(string memory _email) public view returns (\r\n        string[] memory names,\r\n        string[] memory phones,\r\n        string[] memory emails\r\n    ) {\r\n        EmergencyContact[] memory contacts = userContacts[_email];\r\n        uint256 length = contacts.length;\r\n\r\n        names = new string[](length);\r\n        phones = new string[](length);\r\n        emails = new string[](length);\r\n\r\n        for (uint256 i = 0; i < length; i++) {\r\n            names[i] = contacts[i].name;\r\n            phones[i] = contacts[i].phone;\r\n            emails[i] = contacts[i].email;\r\n        }\r\n    }\r\n\r\n    function markNotificationAsRead(string memory _email, uint256 _index) public {\r\n        require(_index < userNotifications[_email].length, \"Invalid notification index\");\r\n        userNotifications[_email][_index].isRead = true;\r\n    }\r\n\r\n    function isSubscribed(string memory _email) public view returns (bool) {\r\n        return userSubscriptions[_email];\r\n    }\r\n} ",
  "sourcePath": "D:\\users\\sudheer\\Desktop\\womes patient monitoring\\contracts\\NotificationSystem.sol",
  "compiler": {
    "name": "solc",
    "version": "0.8.19+commit.7dd6d404.Emscripten.clang"
  },
  "schemaVersion": "3.4.16",
  "updatedAt": "2025-03-12T19:19:19.202Z",
  "networkType": "ethereum",
  "devdoc": {
    "kind": "dev",
    "methods": {},
    "version": 1
  },
  "userdoc": {
    "kind": "user",
    "methods": {},
    "version": 1
  }
}