{
  "contractName": "NotificationSystem",
  "abi": [
    {
      "inputs": [
        {
          "internalType": "address",
          "name": "_wallet",
          "type": "address"
        },
        {
          "internalType": "string",
          "name": "_message",
          "type": "string"
        },
        {
          "internalType": "string",
          "name": "_timestamp",
          "type": "string"
        },
        {
          "internalType": "string",
          "name": "_abnormalParameter",
          "type": "string"
        },
        {
          "internalType": "string",
          "name": "_parameterValue",
          "type": "string"
        },
        {
          "internalType": "string",
          "name": "_warningLevel",
          "type": "string"
        }
      ],
      "name": "addNotification",
      "outputs": [],
      "stateMutability": "nonpayable",
      "type": "function"
    },
    {
      "inputs": [
        {
          "internalType": "address",
          "name": "_wallet",
          "type": "address"
        }
      ],
      "name": "getNotifications",
      "outputs": [
        {
          "internalType": "string[]",
          "name": "messages",
          "type": "string[]"
        },
        {
          "internalType": "string[]",
          "name": "timestamps",
          "type": "string[]"
        },
        {
          "internalType": "string[]",
          "name": "abnormalParameters",
          "type": "string[]"
        },
        {
          "internalType": "string[]",
          "name": "parameterValues",
          "type": "string[]"
        },
        {
          "internalType": "string[]",
          "name": "warningLevels",
          "type": "string[]"
        }
      ],
      "stateMutability": "view",
      "type": "function",
      "constant": true
    },
    {
      "inputs": [
        {
          "internalType": "address",
          "name": "_wallet",
          "type": "address"
        }
      ],
      "name": "getNotificationCount",
      "outputs": [
        {
          "internalType": "uint256",
          "name": "total",
          "type": "uint256"
        }
      ],
      "stateMutability": "view",
      "type": "function",
      "constant": true
    },
    {
      "inputs": [
        {
          "internalType": "address",
          "name": "_wallet",
          "type": "address"
        },
        {
          "internalType": "uint256",
          "name": "_index",
          "type": "uint256"
        }
      ],
      "name": "getNotificationByIndex",
      "outputs": [
        {
          "internalType": "string",
          "name": "message",
          "type": "string"
        },
        {
          "internalType": "string",
          "name": "timestamp",
          "type": "string"
        },
        {
          "internalType": "string",
          "name": "abnormalParameter",
          "type": "string"
        },
        {
          "internalType": "string",
          "name": "parameterValue",
          "type": "string"
        },
        {
          "internalType": "string",
          "name": "warningLevel",
          "type": "string"
        }
      ],
      "stateMutability": "view",
      "type": "function",
      "constant": true
    }
  ],
  "bytecode": "0x608060405234801561001057600080fd5b506116e0806100206000396000f3fe608060405234801561001057600080fd5b506004361061004c5760003560e01c80633cf02d40146100515780638a8f63b01461006d578063a14c7722146100a1578063ca972526146100d5575b600080fd5b61006b60048036038101906100669190610e5d565b610105565b005b61008760048036038101906100829190610f76565b6102c9565b6040516100989594939291906110e4565b60405180910390f35b6100bb60048036038101906100b69190611190565b61088a565b6040516100cc95949392919061121a565b60405180910390f35b6100ef60048036038101906100ea9190610f76565b610c5c565b6040516100fc919061129f565b60405180910390f35b60006040518060c001604052808873ffffffffffffffffffffffffffffffffffffffff1681526020018781526020018681526020018581526020018481526020018381525090506000808873ffffffffffffffffffffffffffffffffffffffff1673ffffffffffffffffffffffffffffffffffffffff16815260200190815260200160002081908060018154018082558091505060019003906000526020600020906006020160009091909190915060008201518160000160006101000a81548173ffffffffffffffffffffffffffffffffffffffff021916908373ffffffffffffffffffffffffffffffffffffffff160217905550602082015181600101908161021091906114c6565b50604082015181600201908161022691906114c6565b50606082015181600301908161023c91906114c6565b50608082015181600401908161025291906114c6565b5060a082015181600501908161026891906114c6565b505050600160008873ffffffffffffffffffffffffffffffffffffffff1673ffffffffffffffffffffffffffffffffffffffff16815260200190815260200160002060008154809291906102bb906115c7565b919050555050505050505050565b606080606080606060008060008873ffffffffffffffffffffffffffffffffffffffff1673ffffffffffffffffffffffffffffffffffffffff1681526020019081526020016000208054905090508067ffffffffffffffff81111561033157610330610d32565b5b60405190808252806020026020018201604052801561036457816020015b606081526020019060019003908161034f5790505b5095508067ffffffffffffffff81111561038157610380610d32565b5b6040519080825280602002602001820160405280156103b457816020015b606081526020019060019003908161039f5790505b5094508067ffffffffffffffff8111156103d1576103d0610d32565b5b60405190808252806020026020018201604052801561040457816020015b60608152602001906001900390816103ef5790505b5093508067ffffffffffffffff81111561042157610420610d32565b5b60405190808252806020026020018201604052801561045457816020015b606081526020019060019003908161043f5790505b5092508067ffffffffffffffff81111561047157610470610d32565b5b6040519080825280602002602001820160405280156104a457816020015b606081526020019060019003908161048f5790505b50915060005b8181101561087f5760008060008a73ffffffffffffffffffffffffffffffffffffffff1673ffffffffffffffffffffffffffffffffffffffff16815260200190815260200160002082815481106105045761050361160f565b5b90600052602060002090600602019050806001018054610523906112e9565b80601f016020809104026020016040519081016040528092919081815260200182805461054f906112e9565b801561059c5780601f106105715761010080835404028352916020019161059c565b820191906000526020600020905b81548152906001019060200180831161057f57829003601f168201915b50505050508883815181106105b4576105b361160f565b5b60200260200101819052508060020180546105ce906112e9565b80601f01602080910402602001604051908101604052809291908181526020018280546105fa906112e9565b80156106475780601f1061061c57610100808354040283529160200191610647565b820191906000526020600020905b81548152906001019060200180831161062a57829003601f168201915b505050505087838151811061065f5761065e61160f565b5b6020026020010181905250806003018054610679906112e9565b80601f01602080910402602001604051908101604052809291908181526020018280546106a5906112e9565b80156106f25780601f106106c7576101008083540402835291602001916106f2565b820191906000526020600020905b8154815290600101906020018083116106d557829003601f168201915b505050505086838151811061070a5761070961160f565b5b6020026020010181905250806004018054610724906112e9565b80601f0160208091040260200160405190810160405280929190818152602001828054610750906112e9565b801561079d5780601f106107725761010080835404028352916020019161079d565b820191906000526020600020905b81548152906001019060200180831161078057829003601f168201915b50505050508583815181106107b5576107b461160f565b5b60200260200101819052508060050180546107cf906112e9565b80601f01602080910402602001604051908101604052809291908181526020018280546107fb906112e9565b80156108485780601f1061081d57610100808354040283529160200191610848565b820191906000526020600020905b81548152906001019060200180831161082b57829003601f168201915b50505050508483815181106108605761085f61160f565b5b6020026020010181905250508080610877906115c7565b9150506104aa565b505091939590929450565b60608060608060606000808873ffffffffffffffffffffffffffffffffffffffff1673ffffffffffffffffffffffffffffffffffffffff168152602001908152602001600020805490508610610915576040517f08c379a000000000000000000000000000000000000000000000000000000000815260040161090c9061168a565b60405180910390fd5b60008060008973ffffffffffffffffffffffffffffffffffffffff1673ffffffffffffffffffffffffffffffffffffffff16815260200190815260200160002087815481106109675761096661160f565b5b906000526020600020906006020190508060010181600201826003018360040184600501848054610997906112e9565b80601f01602080910402602001604051908101604052809291908181526020018280546109c3906112e9565b8015610a105780601f106109e557610100808354040283529160200191610a10565b820191906000526020600020905b8154815290600101906020018083116109f357829003601f168201915b50505050509450838054610a23906112e9565b80601f0160208091040260200160405190810160405280929190818152602001828054610a4f906112e9565b8015610a9c5780601f10610a7157610100808354040283529160200191610a9c565b820191906000526020600020905b815481529060010190602001808311610a7f57829003601f168201915b50505050509350828054610aaf906112e9565b80601f0160208091040260200160405190810160405280929190818152602001828054610adb906112e9565b8015610b285780601f10610afd57610100808354040283529160200191610b28565b820191906000526020600020905b815481529060010190602001808311610b0b57829003601f168201915b50505050509250818054610b3b906112e9565b80601f0160208091040260200160405190810160405280929190818152602001828054610b67906112e9565b8015610bb45780601f10610b8957610100808354040283529160200191610bb4565b820191906000526020600020905b815481529060010190602001808311610b9757829003601f168201915b50505050509150808054610bc7906112e9565b80601f0160208091040260200160405190810160405280929190818152602001828054610bf3906112e9565b8015610c405780601f10610c1557610100808354040283529160200191610c40565b820191906000526020600020905b815481529060010190602001808311610c2357829003601f168201915b5050505050905095509550955095509550509295509295909350565b6000600160008373ffffffffffffffffffffffffffffffffffffffff1673ffffffffffffffffffffffffffffffffffffffff168152602001908152602001600020549050919050565b6000604051905090565b600080fd5b600080fd5b600073ffffffffffffffffffffffffffffffffffffffff82169050919050565b6000610ce482610cb9565b9050919050565b610cf481610cd9565b8114610cff57600080fd5b50565b600081359050610d1181610ceb565b92915050565b600080fd5b600080fd5b6000601f19601f8301169050919050565b7f4e487b7100000000000000000000000000000000000000000000000000000000600052604160045260246000fd5b610d6a82610d21565b810181811067ffffffffffffffff82111715610d8957610d88610d32565b5b80604052505050565b6000610d9c610ca5565b9050610da88282610d61565b919050565b600067ffffffffffffffff821115610dc857610dc7610d32565b5b610dd182610d21565b9050602081019050919050565b82818337600083830152505050565b6000610e00610dfb84610dad565b610d92565b905082815260208101848484011115610e1c57610e1b610d1c565b5b610e27848285610dde565b509392505050565b600082601f830112610e4457610e43610d17565b5b8135610e54848260208601610ded565b91505092915050565b60008060008060008060c08789031215610e7a57610e79610caf565b5b6000610e8889828a01610d02565b965050602087013567ffffffffffffffff811115610ea957610ea8610cb4565b5b610eb589828a01610e2f565b955050604087013567ffffffffffffffff811115610ed657610ed5610cb4565b5b610ee289828a01610e2f565b945050606087013567ffffffffffffffff811115610f0357610f02610cb4565b5b610f0f89828a01610e2f565b935050608087013567ffffffffffffffff811115610f3057610f2f610cb4565b5b610f3c89828a01610e2f565b92505060a087013567ffffffffffffffff811115610f5d57610f5c610cb4565b5b610f6989828a01610e2f565b9150509295509295509295565b600060208284031215610f8c57610f8b610caf565b5b6000610f9a84828501610d02565b91505092915050565b600081519050919050565b600082825260208201905092915050565b6000819050602082019050919050565b600081519050919050565b600082825260208201905092915050565b60005b83811015611009578082015181840152602081019050610fee565b60008484015250505050565b600061102082610fcf565b61102a8185610fda565b935061103a818560208601610feb565b61104381610d21565b840191505092915050565b600061105a8383611015565b905092915050565b6000602082019050919050565b600061107a82610fa3565b6110848185610fae565b93508360208202850161109685610fbf565b8060005b858110156110d257848403895281516110b3858261104e565b94506110be83611062565b925060208a0199505060018101905061109a565b50829750879550505050505092915050565b600060a08201905081810360008301526110fe818861106f565b90508181036020830152611112818761106f565b90508181036040830152611126818661106f565b9050818103606083015261113a818561106f565b9050818103608083015261114e818461106f565b90509695505050505050565b6000819050919050565b61116d8161115a565b811461117857600080fd5b50565b60008135905061118a81611164565b92915050565b600080604083850312156111a7576111a6610caf565b5b60006111b585828601610d02565b92505060206111c68582860161117b565b9150509250929050565b600082825260208201905092915050565b60006111ec82610fcf565b6111f681856111d0565b9350611206818560208601610feb565b61120f81610d21565b840191505092915050565b600060a082019050818103600083015261123481886111e1565b9050818103602083015261124881876111e1565b9050818103604083015261125c81866111e1565b9050818103606083015261127081856111e1565b9050818103608083015261128481846111e1565b90509695505050505050565b6112998161115a565b82525050565b60006020820190506112b46000830184611290565b92915050565b7f4e487b7100000000000000000000000000000000000000000000000000000000600052602260045260246000fd5b6000600282049050600182168061130157607f821691505b602082108103611314576113136112ba565b5b50919050565b60008190508160005260206000209050919050565b60006020601f8301049050919050565b600082821b905092915050565b60006008830261137c7fffffffffffffffffffffffffffffffffffffffffffffffffffffffffffffffff8261133f565b611386868361133f565b95508019841693508086168417925050509392505050565b6000819050919050565b60006113c36113be6113b98461115a565b61139e565b61115a565b9050919050565b6000819050919050565b6113dd836113a8565b6113f16113e9826113ca565b84845461134c565b825550505050565b600090565b6114066113f9565b6114118184846113d4565b505050565b5b818110156114355761142a6000826113fe565b600181019050611417565b5050565b601f82111561147a5761144b8161131a565b6114548461132f565b81016020851015611463578190505b61147761146f8561132f565b830182611416565b50505b505050565b600082821c905092915050565b600061149d6000198460080261147f565b1980831691505092915050565b60006114b6838361148c565b9150826002028217905092915050565b6114cf82610fcf565b67ffffffffffffffff8111156114e8576114e7610d32565b5b6114f282546112e9565b6114fd828285611439565b600060209050601f831160018114611530576000841561151e578287015190505b61152885826114aa565b865550611590565b601f19841661153e8661131a565b60005b8281101561156657848901518255600182019150602085019450602081019050611541565b86831015611583578489015161157f601f89168261148c565b8355505b6001600288020188555050505b505050505050565b7f4e487b7100000000000000000000000000000000000000000000000000000000600052601160045260246000fd5b60006115d28261115a565b91507fffffffffffffffffffffffffffffffffffffffffffffffffffffffffffffffff820361160457611603611598565b5b600182019050919050565b7f4e487b7100000000000000000000000000000000000000000000000000000000600052603260045260246000fd5b7f496e76616c6964206e6f74696669636174696f6e20696e646578000000000000600082015250565b6000611674601a836111d0565b915061167f8261163e565b602082019050919050565b600060208201905081810360008301526116a381611667565b905091905056fea2646970667358221220ff2960c2baa72fcdf77ed3b84e459077061d0ad3ef865d084da039db0d51474b64736f6c63430008130033",
  "immutableReferences": {},
  "source": "// SPDX-License-Identifier: MIT\r\npragma solidity ^0.8.0;\r\n\r\ncontract NotificationSystem {\r\n    struct Notification {\r\n        address wallet;\r\n        string message;\r\n        string timestamp;\r\n        string abnormalParameter;\r\n        string parameterValue;\r\n        string warningLevel;  // \"LOW\", \"MEDIUM\", \"HIGH\"\r\n    }\r\n\r\n    // Mapping from wallet address to array of notifications\r\n    mapping(address => Notification[]) private userNotifications;\r\n    \r\n    // Mapping to track total notifications for each wallet\r\n    mapping(address => uint256) private totalNotifications;\r\n\r\n    function addNotification(\r\n        address _wallet,\r\n        string memory _message,\r\n        string memory _timestamp,\r\n        string memory _abnormalParameter,\r\n        string memory _parameterValue,\r\n        string memory _warningLevel\r\n    ) public {\r\n        // Create new notification\r\n        Notification memory newNotification = Notification({\r\n            wallet: _wallet,\r\n            message: _message,\r\n            timestamp: _timestamp,\r\n            abnormalParameter: _abnormalParameter,\r\n            parameterValue: _parameterValue,\r\n            warningLevel: _warningLevel\r\n        });\r\n\r\n        // Add notification to user's notifications array\r\n        userNotifications[_wallet].push(newNotification);\r\n        \r\n        // Update counter\r\n        totalNotifications[_wallet]++;\r\n    }\r\n\r\n    function getNotifications(address _wallet) public view returns (\r\n        string[] memory messages,\r\n        string[] memory timestamps,\r\n        string[] memory abnormalParameters,\r\n        string[] memory parameterValues,\r\n        string[] memory warningLevels\r\n    ) {\r\n        uint256 length = userNotifications[_wallet].length;\r\n        \r\n        // Initialize arrays with the correct length\r\n        messages = new string[](length);\r\n        timestamps = new string[](length);\r\n        abnormalParameters = new string[](length);\r\n        parameterValues = new string[](length);\r\n        warningLevels = new string[](length);\r\n\r\n        // Populate arrays with notification data\r\n        for (uint256 i = 0; i < length; i++) {\r\n            Notification storage notification = userNotifications[_wallet][i];\r\n            messages[i] = notification.message;\r\n            timestamps[i] = notification.timestamp;\r\n            abnormalParameters[i] = notification.abnormalParameter;\r\n            parameterValues[i] = notification.parameterValue;\r\n            warningLevels[i] = notification.warningLevel;\r\n        }\r\n\r\n        return (messages, timestamps, abnormalParameters, parameterValues, warningLevels);\r\n    }\r\n\r\n    function getNotificationCount(address _wallet) public view returns (uint256 total) {\r\n        return totalNotifications[_wallet];\r\n    }\r\n\r\n    function getNotificationByIndex(address _wallet, uint256 _index) public view returns (\r\n        string memory message,\r\n        string memory timestamp,\r\n        string memory abnormalParameter,\r\n        string memory parameterValue,\r\n        string memory warningLevel\r\n    ) {\r\n        require(_index < userNotifications[_wallet].length, \"Invalid notification index\");\r\n        \r\n        Notification storage notification = userNotifications[_wallet][_index];\r\n        \r\n        return (\r\n            notification.message,\r\n            notification.timestamp,\r\n            notification.abnormalParameter,\r\n            notification.parameterValue,\r\n            notification.warningLevel\r\n        );\r\n    }\r\n}\r\n",
  "sourcePath": "C:\\Users\\HP\\Desktop\\MLEW\\MLEW-IoT-based-Oxygen-Level-monitoring-circuit-for-patient\\contracts\\NotificationSystem.sol",
  "compiler": {
    "name": "solc",
    "version": "0.8.19+commit.7dd6d404.Emscripten.clang"
  },
  "schemaVersion": "3.4.16",
  "updatedAt": "2025-03-15T07:01:31.938Z",
  "networkType": "ethereum",
  "devdoc": {
    "kind": "dev",
    "methods": {},
    "version": 1
  },
  "userdoc": {
    "kind": "user",
    "methods": {},
    "version": 1
  }
}