{
  "contractName": "UserManagement",
  "abi": [
    {
      "inputs": [
        {
          "internalType": "address",
          "name": "",
          "type": "address"
        }
      ],
      "name": "walletToEmail",
      "outputs": [
        {
          "internalType": "string",
          "name": "",
          "type": "string"
        }
      ],
      "stateMutability": "view",
      "type": "function",
      "constant": true
    },
    {
      "inputs": [
        {
          "internalType": "string",
          "name": "_email",
          "type": "string"
        },
        {
          "internalType": "string",
          "name": "_name",
          "type": "string"
        },
        {
          "internalType": "bytes32",
          "name": "_passwordHash",
          "type": "bytes32"
        },
        {
          "internalType": "address",
          "name": "_walletAddress",
          "type": "address"
        }
      ],
      "name": "registerUser",
      "outputs": [],
      "stateMutability": "nonpayable",
      "type": "function"
    },
    {
      "inputs": [
        {
          "internalType": "string",
          "name": "_email",
          "type": "string"
        },
        {
          "internalType": "bytes32",
          "name": "_passwordHash",
          "type": "bytes32"
        }
      ],
      "name": "verifyLogin",
      "outputs": [
        {
          "internalType": "bool",
          "name": "",
          "type": "bool"
        }
      ],
      "stateMutability": "view",
      "type": "function",
      "constant": true
    },
    {
      "inputs": [
        {
          "internalType": "string",
          "name": "_email",
          "type": "string"
        }
      ],
      "name": "checkUser",
      "outputs": [
        {
          "internalType": "bool",
          "name": "",
          "type": "bool"
        }
      ],
      "stateMutability": "view",
      "type": "function",
      "constant": true
    },
    {
      "inputs": [
        {
          "internalType": "string",
          "name": "_email",
          "type": "string"
        }
      ],
      "name": "getUser",
      "outputs": [
        {
          "internalType": "string",
          "name": "name",
          "type": "string"
        },
        {
          "internalType": "address",
          "name": "walletAddress",
          "type": "address"
        }
      ],
      "stateMutability": "view",
      "type": "function",
      "constant": true
    }
  ],
  "bytecode": "0x608060405234801561001057600080fd5b50611099806100206000396000f3fe608060405234801561001057600080fd5b50600436106100575760003560e01c80631eb41b711461005c5780632efba47e1461008c57806331feb671146100a857806346d82e1a146100d957806385f3683b14610109575b600080fd5b610076600480360381019061007191906108a3565b610139565b6040516100839190610907565b60405180910390f35b6100a660048036038101906100a191906109b6565b610170565b005b6100c260048036038101906100bd91906108a3565b6103be565b6040516100d0929190610ae3565b60405180910390f35b6100f360048036038101906100ee9190610b13565b61060e565b6040516101009190610907565b60405180910390f35b610123600480360381019061011e9190610b6f565b6106a9565b6040516101309190610b9c565b60405180910390f35b6000808260405161014a9190610bfa565b908152602001604051809103902060030160149054906101000a900460ff169050919050565b6000846040516101809190610bfa565b908152602001604051809103902060030160149054906101000a900460ff16156101df576040517f08c379a00000000000000000000000000000000000000000000000000000000081526004016101d690610c5d565b60405180910390fd5b6000600160008373ffffffffffffffffffffffffffffffffffffffff1673ffffffffffffffffffffffffffffffffffffffff168152602001908152602001600020805461022b90610cac565b90501461026d576040517f08c379a000000000000000000000000000000000000000000000000000000000815260040161026490610d4f565b60405180910390fd5b6040518060a001604052808481526020018581526020018381526020018273ffffffffffffffffffffffffffffffffffffffff168152602001600115158152506000856040516102bd9190610bfa565b908152602001604051809103902060008201518160000190816102e09190610f25565b5060208201518160010190816102f69190610f25565b506040820151816002015560608201518160030160006101000a81548173ffffffffffffffffffffffffffffffffffffffff021916908373ffffffffffffffffffffffffffffffffffffffff16021790555060808201518160030160146101000a81548160ff02191690831515021790555090505083600160008373ffffffffffffffffffffffffffffffffffffffff1673ffffffffffffffffffffffffffffffffffffffff16815260200190815260200160002090816103b79190610f25565b5050505050565b6060600080836040516103d19190610bfa565b908152602001604051809103902060030160149054906101000a900460ff1661042f576040517f08c379a000000000000000000000000000000000000000000000000000000000815260040161042690611043565b60405180910390fd5b600080846040516104409190610bfa565b90815260200160405180910390206040518060a001604052908160008201805461046990610cac565b80601f016020809104026020016040519081016040528092919081815260200182805461049590610cac565b80156104e25780601f106104b7576101008083540402835291602001916104e2565b820191906000526020600020905b8154815290600101906020018083116104c557829003601f168201915b505050505081526020016001820180546104fb90610cac565b80601f016020809104026020016040519081016040528092919081815260200182805461052790610cac565b80156105745780601f1061054957610100808354040283529160200191610574565b820191906000526020600020905b81548152906001019060200180831161055757829003601f168201915b50505050508152602001600282015481526020016003820160009054906101000a900473ffffffffffffffffffffffffffffffffffffffff1673ffffffffffffffffffffffffffffffffffffffff1673ffffffffffffffffffffffffffffffffffffffff1681526020016003820160149054906101000a900460ff1615151515815250509050806000015181606001519250925050915091565b6000808360405161061f9190610bfa565b908152602001604051809103902060030160149054906101000a900460ff1661067d576040517f08c379a000000000000000000000000000000000000000000000000000000000815260040161067490611043565b60405180910390fd5b8160008460405161068e9190610bfa565b90815260200160405180910390206002015414905092915050565b600160205280600052604060002060009150905080546106c890610cac565b80601f01602080910402602001604051908101604052809291908181526020018280546106f490610cac565b80156107415780601f1061071657610100808354040283529160200191610741565b820191906000526020600020905b81548152906001019060200180831161072457829003601f168201915b505050505081565b6000604051905090565b600080fd5b600080fd5b600080fd5b600080fd5b6000601f19601f8301169050919050565b7f4e487b7100000000000000000000000000000000000000000000000000000000600052604160045260246000fd5b6107b082610767565b810181811067ffffffffffffffff821117156107cf576107ce610778565b5b80604052505050565b60006107e2610749565b90506107ee82826107a7565b919050565b600067ffffffffffffffff82111561080e5761080d610778565b5b61081782610767565b9050602081019050919050565b82818337600083830152505050565b6000610846610841846107f3565b6107d8565b90508281526020810184848401111561086257610861610762565b5b61086d848285610824565b509392505050565b600082601f83011261088a5761088961075d565b5b813561089a848260208601610833565b91505092915050565b6000602082840312156108b9576108b8610753565b5b600082013567ffffffffffffffff8111156108d7576108d6610758565b5b6108e384828501610875565b91505092915050565b60008115159050919050565b610901816108ec565b82525050565b600060208201905061091c60008301846108f8565b92915050565b6000819050919050565b61093581610922565b811461094057600080fd5b50565b6000813590506109528161092c565b92915050565b600073ffffffffffffffffffffffffffffffffffffffff82169050919050565b600061098382610958565b9050919050565b61099381610978565b811461099e57600080fd5b50565b6000813590506109b08161098a565b92915050565b600080600080608085870312156109d0576109cf610753565b5b600085013567ffffffffffffffff8111156109ee576109ed610758565b5b6109fa87828801610875565b945050602085013567ffffffffffffffff811115610a1b57610a1a610758565b5b610a2787828801610875565b9350506040610a3887828801610943565b9250506060610a49878288016109a1565b91505092959194509250565b600081519050919050565b600082825260208201905092915050565b60005b83811015610a8f578082015181840152602081019050610a74565b60008484015250505050565b6000610aa682610a55565b610ab08185610a60565b9350610ac0818560208601610a71565b610ac981610767565b840191505092915050565b610add81610978565b82525050565b60006040820190508181036000830152610afd8185610a9b565b9050610b0c6020830184610ad4565b9392505050565b60008060408385031215610b2a57610b29610753565b5b600083013567ffffffffffffffff811115610b4857610b47610758565b5b610b5485828601610875565b9250506020610b6585828601610943565b9150509250929050565b600060208284031215610b8557610b84610753565b5b6000610b93848285016109a1565b91505092915050565b60006020820190508181036000830152610bb68184610a9b565b905092915050565b600081905092915050565b6000610bd482610a55565b610bde8185610bbe565b9350610bee818560208601610a71565b80840191505092915050565b6000610c068284610bc9565b915081905092915050565b7f5573657220616c72656164792065786973747300000000000000000000000000600082015250565b6000610c47601383610a60565b9150610c5282610c11565b602082019050919050565b60006020820190508181036000830152610c7681610c3a565b9050919050565b7f4e487b7100000000000000000000000000000000000000000000000000000000600052602260045260246000fd5b60006002820490506001821680610cc457607f821691505b602082108103610cd757610cd6610c7d565b5b50919050565b7f57616c6c6574206164647265737320616c72656164792072656769737465726560008201527f6400000000000000000000000000000000000000000000000000000000000000602082015250565b6000610d39602183610a60565b9150610d4482610cdd565b604082019050919050565b60006020820190508181036000830152610d6881610d2c565b9050919050565b60008190508160005260206000209050919050565b60006020601f8301049050919050565b600082821b905092915050565b600060088302610dd17fffffffffffffffffffffffffffffffffffffffffffffffffffffffffffffffff82610d94565b610ddb8683610d94565b95508019841693508086168417925050509392505050565b6000819050919050565b6000819050919050565b6000610e22610e1d610e1884610df3565b610dfd565b610df3565b9050919050565b6000819050919050565b610e3c83610e07565b610e50610e4882610e29565b848454610da1565b825550505050565b600090565b610e65610e58565b610e70818484610e33565b505050565b5b81811015610e9457610e89600082610e5d565b600181019050610e76565b5050565b601f821115610ed957610eaa81610d6f565b610eb384610d84565b81016020851015610ec2578190505b610ed6610ece85610d84565b830182610e75565b50505b505050565b600082821c905092915050565b6000610efc60001984600802610ede565b1980831691505092915050565b6000610f158383610eeb565b9150826002028217905092915050565b610f2e82610a55565b67ffffffffffffffff811115610f4757610f46610778565b5b610f518254610cac565b610f5c828285610e98565b600060209050601f831160018114610f8f5760008415610f7d578287015190505b610f878582610f09565b865550610fef565b601f198416610f9d86610d6f565b60005b82811015610fc557848901518255600182019150602085019450602081019050610fa0565b86831015610fe25784890151610fde601f891682610eeb565b8355505b6001600288020188555050505b505050505050565b7f5573657220646f6573206e6f7420657869737400000000000000000000000000600082015250565b600061102d601383610a60565b915061103882610ff7565b602082019050919050565b6000602082019050818103600083015261105c81611020565b905091905056fea2646970667358221220f96f4b06168136608aa40a33533321f5954e3fa9c90fc446d5897ee12a2b8a7564736f6c63430008130033",
  "immutableReferences": {},
  "source": "// SPDX-License-Identifier: MIT\r\npragma solidity ^0.8.19;\r\n\r\ncontract UserManagement {\r\n    struct User {\r\n        string name;\r\n        string email;\r\n        bytes32 passwordHash;\r\n        address walletAddress;\r\n        bool exists;\r\n    }\r\n\r\n    // Main storage mappings\r\n    mapping(string => User) private users;  // email -> User\r\n    mapping(address => string) public walletToEmail;  // wallet -> email\r\n\r\n    function registerUser(\r\n        string memory _email, \r\n        string memory _name, \r\n        bytes32 _passwordHash,\r\n        address _walletAddress\r\n    ) public {\r\n        require(!users[_email].exists, \"User already exists\");\r\n        require(bytes(walletToEmail[_walletAddress]).length == 0, \"Wallet address already registered\");\r\n        \r\n        users[_email] = User({\r\n            name: _name,\r\n            email: _email,\r\n            passwordHash: _passwordHash,\r\n            walletAddress: _walletAddress,\r\n            exists: true\r\n        });\r\n\r\n        walletToEmail[_walletAddress] = _email;\r\n    }\r\n\r\n    function verifyLogin(string memory _email, bytes32 _passwordHash) public view returns (bool) {\r\n        require(users[_email].exists, \"User does not exist\");\r\n        return users[_email].passwordHash == _passwordHash;\r\n    }\r\n\r\n    function checkUser(string memory _email) public view returns (bool) {\r\n        return users[_email].exists;\r\n    }\r\n\r\n    function getUser(string memory _email) public view returns (\r\n        string memory name,\r\n        address walletAddress\r\n    ) {\r\n        require(users[_email].exists, \"User does not exist\");\r\n        User memory user = users[_email];\r\n        return (user.name, user.walletAddress);\r\n    }\r\n}\r\n",
  "sourcePath": "C:\\Users\\HP\\Desktop\\MLEW\\MLEW-IoT-based-Oxygen-Level-monitoring-circuit-for-patient\\contracts\\UserManagement.sol",
  "compiler": {
    "name": "solc",
    "version": "0.8.19+commit.7dd6d404.Emscripten.clang"
  },
  "schemaVersion": "3.4.16",
  "updatedAt": "2025-03-15T09:22:56.662Z",
  "networkType": "ethereum",
  "devdoc": {
    "kind": "dev",
    "methods": {},
    "version": 1
  },
  "userdoc": {
    "kind": "user",
    "methods": {},
    "version": 1
  }
}