{
  "contractName": "UserManagement",
  "abi": [
    {
      "inputs": [],
      "stateMutability": "nonpayable",
      "type": "constructor"
    },
    {
      "anonymous": false,
      "inputs": [
        {
          "indexed": false,
          "internalType": "string",
          "name": "email",
          "type": "string"
        }
      ],
      "name": "PasswordChanged",
      "type": "event"
    },
    {
      "anonymous": false,
      "inputs": [
        {
          "indexed": false,
          "internalType": "string",
          "name": "email",
          "type": "string"
        }
      ],
      "name": "SettingsUpdated",
      "type": "event"
    },
    {
      "anonymous": false,
      "inputs": [
        {
          "indexed": false,
          "internalType": "string",
          "name": "email",
          "type": "string"
        },
        {
          "indexed": false,
          "internalType": "string",
          "name": "name",
          "type": "string"
        },
        {
          "indexed": false,
          "internalType": "address",
          "name": "walletAddress",
          "type": "address"
        }
      ],
      "name": "UserRegistered",
      "type": "event"
    },
    {
      "anonymous": false,
      "inputs": [
        {
          "indexed": false,
          "internalType": "string",
          "name": "email",
          "type": "string"
        },
        {
          "indexed": false,
          "internalType": "string",
          "name": "name",
          "type": "string"
        }
      ],
      "name": "UserUpdated",
      "type": "event"
    },
    {
      "inputs": [],
      "name": "owner",
      "outputs": [
        {
          "internalType": "address",
          "name": "",
          "type": "address"
        }
      ],
      "stateMutability": "view",
      "type": "function",
      "constant": true
    },
    {
      "inputs": [
        {
          "internalType": "string",
          "name": "",
          "type": "string"
        }
      ],
      "name": "userSettings",
      "outputs": [
        {
          "internalType": "uint256",
          "name": "hrHigh",
          "type": "uint256"
        },
        {
          "internalType": "uint256",
          "name": "hrLow",
          "type": "uint256"
        },
        {
          "internalType": "uint256",
          "name": "spo2Low",
          "type": "uint256"
        },
        {
          "internalType": "uint256",
          "name": "tempHigh",
          "type": "uint256"
        },
        {
          "internalType": "uint256",
          "name": "tempLow",
          "type": "uint256"
        },
        {
          "internalType": "bool",
          "name": "exists",
          "type": "bool"
        }
      ],
      "stateMutability": "view",
      "type": "function",
      "constant": true
    },
    {
      "inputs": [
        {
          "internalType": "string",
          "name": "",
          "type": "string"
        }
      ],
      "name": "users",
      "outputs": [
        {
          "internalType": "string",
          "name": "name",
          "type": "string"
        },
        {
          "internalType": "string",
          "name": "email",
          "type": "string"
        },
        {
          "internalType": "bytes32",
          "name": "passwordHash",
          "type": "bytes32"
        },
        {
          "internalType": "address",
          "name": "walletAddress",
          "type": "address"
        },
        {
          "internalType": "bool",
          "name": "exists",
          "type": "bool"
        }
      ],
      "stateMutability": "view",
      "type": "function",
      "constant": true
    },
    {
      "inputs": [
        {
          "internalType": "address",
          "name": "",
          "type": "address"
        }
      ],
      "name": "walletToEmail",
      "outputs": [
        {
          "internalType": "string",
          "name": "",
          "type": "string"
        }
      ],
      "stateMutability": "view",
      "type": "function",
      "constant": true
    },
    {
      "inputs": [
        {
          "internalType": "string",
          "name": "_email",
          "type": "string"
        },
        {
          "internalType": "string",
          "name": "_name",
          "type": "string"
        },
        {
          "internalType": "bytes32",
          "name": "_passwordHash",
          "type": "bytes32"
        },
        {
          "internalType": "address",
          "name": "_walletAddress",
          "type": "address"
        }
      ],
      "name": "registerUser",
      "outputs": [],
      "stateMutability": "nonpayable",
      "type": "function"
    },
    {
      "inputs": [
        {
          "internalType": "string",
          "name": "_email",
          "type": "string"
        },
        {
          "internalType": "string",
          "name": "_name",
          "type": "string"
        }
      ],
      "name": "updateUser",
      "outputs": [],
      "stateMutability": "nonpayable",
      "type": "function"
    },
    {
      "inputs": [
        {
          "internalType": "string",
          "name": "_email",
          "type": "string"
        },
        {
          "internalType": "uint256",
          "name": "_hrHigh",
          "type": "uint256"
        },
        {
          "internalType": "uint256",
          "name": "_hrLow",
          "type": "uint256"
        },
        {
          "internalType": "uint256",
          "name": "_spo2Low",
          "type": "uint256"
        },
        {
          "internalType": "uint256",
          "name": "_tempHigh",
          "type": "uint256"
        },
        {
          "internalType": "uint256",
          "name": "_tempLow",
          "type": "uint256"
        }
      ],
      "name": "updateSettings",
      "outputs": [],
      "stateMutability": "nonpayable",
      "type": "function"
    },
    {
      "inputs": [
        {
          "internalType": "string",
          "name": "_email",
          "type": "string"
        },
        {
          "internalType": "bytes32",
          "name": "_newPasswordHash",
          "type": "bytes32"
        }
      ],
      "name": "changePassword",
      "outputs": [],
      "stateMutability": "nonpayable",
      "type": "function"
    },
    {
      "inputs": [
        {
          "internalType": "string",
          "name": "_email",
          "type": "string"
        }
      ],
      "name": "getUser",
      "outputs": [
        {
          "internalType": "string",
          "name": "name",
          "type": "string"
        },
        {
          "internalType": "string",
          "name": "email",
          "type": "string"
        },
        {
          "internalType": "address",
          "name": "walletAddress",
          "type": "address"
        }
      ],
      "stateMutability": "view",
      "type": "function",
      "constant": true
    },
    {
      "inputs": [
        {
          "internalType": "string",
          "name": "_email",
          "type": "string"
        }
      ],
      "name": "getUserWallet",
      "outputs": [
        {
          "internalType": "address",
          "name": "",
          "type": "address"
        }
      ],
      "stateMutability": "view",
      "type": "function",
      "constant": true
    },
    {
      "inputs": [
        {
          "internalType": "string",
          "name": "_email",
          "type": "string"
        }
      ],
      "name": "getUserSettings",
      "outputs": [
        {
          "internalType": "uint256",
          "name": "hrHigh",
          "type": "uint256"
        },
        {
          "internalType": "uint256",
          "name": "hrLow",
          "type": "uint256"
        },
        {
          "internalType": "uint256",
          "name": "spo2Low",
          "type": "uint256"
        },
        {
          "internalType": "uint256",
          "name": "tempHigh",
          "type": "uint256"
        },
        {
          "internalType": "uint256",
          "name": "tempLow",
          "type": "uint256"
        }
      ],
      "stateMutability": "view",
      "type": "function",
      "constant": true
    },
    {
      "inputs": [
        {
          "internalType": "string",
          "name": "_email",
          "type": "string"
        },
        {
          "internalType": "bytes32",
          "name": "_passwordHash",
          "type": "bytes32"
        }
      ],
      "name": "verifyPassword",
      "outputs": [
        {
          "internalType": "bool",
          "name": "",
          "type": "bool"
        }
      ],
      "stateMutability": "view",
      "type": "function",
      "constant": true
    },
    {
      "inputs": [
        {
          "internalType": "string",
          "name": "_email",
          "type": "string"
        }
      ],
      "name": "checkUser",
      "outputs": [
        {
          "internalType": "bool",
          "name": "",
          "type": "bool"
        }
      ],
      "stateMutability": "view",
      "type": "function",
      "constant": true
    },
    {
      "inputs": [
        {
          "internalType": "string",
          "name": "_email",
          "type": "string"
        }
      ],
      "name": "getUserPassword",
      "outputs": [
        {
          "internalType": "bytes32",
          "name": "",
          "type": "bytes32"
        }
      ],
      "stateMutability": "view",
      "type": "function",
      "constant": true
    },
    {
      "inputs": [
        {
          "internalType": "string",
          "name": "_email",
          "type": "string"
        }
      ],
      "name": "getUserName",
      "outputs": [
        {
          "internalType": "string",
          "name": "",
          "type": "string"
        }
      ],
      "stateMutability": "view",
      "type": "function",
      "constant": true
    }
  ],
  "bytecode": "0x608060405234801561001057600080fd5b5033600360006101000a81548173ffffffffffffffffffffffffffffffffffffffff021916908373ffffffffffffffffffffffffffffffffffffffff160217905550612310806100616000396000f3fe608060405234801561001057600080fd5b50600436106100f55760003560e01c8063689e1c0311610097578063c9ae6b0111610066578063c9ae6b01146102df578063dd4a24251461030f578063e57755151461032b578063e92259841461035b576100f5565b8063689e1c031461022d5780637228c6e01461026157806385f3683b146102915780638da5cb5b146102c1576100f5565b806331feb671116100d357806331feb671146101625780634586cf71146101945780634938aef4146101c457806349aee44f146101f8576100f5565b8063054f1b6a146100fa5780631eb41b71146101165780632efba47e14610146575b600080fd5b610114600480360381019061010f919061162c565b610377565b005b610130600480360381019061012b9190611688565b6104f5565b60405161013d91906116ec565b60405180910390f35b610160600480360381019061015b9190611765565b61052c565b005b61017c60048036038101906101779190611688565b6107b5565b60405161018b93929190611892565b60405180910390f35b6101ae60048036038101906101a9919061162c565b6109d0565b6040516101bb91906116ec565b60405180910390f35b6101de60048036038101906101d99190611688565b610a6b565b6040516101ef9594939291906118f0565b60405180910390f35b610212600480360381019061020d9190611688565b610bf5565b60405161022496959493929190611943565b60405180910390f35b61024760048036038101906102429190611688565b610c54565b6040516102589594939291906119b3565b60405180910390f35b61027b60048036038101906102769190611688565b610ddd565b6040516102889190611a14565b60405180910390f35b6102ab60048036038101906102a69190611a36565b610efe565b6040516102b89190611a14565b60405180910390f35b6102c9610f9e565b6040516102d69190611a63565b60405180910390f35b6102f960048036038101906102f49190611688565b610fc4565b6040516103069190611a7e565b60405180910390f35b61032960048036038101906103249190611a99565b61105c565b005b61034560048036038101906103409190611688565b6111e5565b6040516103529190611a63565b60405180910390f35b61037560048036038101906103709190611b3d565b61129d565b005b6000826040516103879190611c22565b908152602001604051809103902060030160149054906101000a900460ff166103e5576040517f08c379a00000000000000000000000000000000000000000000000000000000081526004016103dc90611c85565b60405180910390fd5b6000826040516103f59190611c22565b908152602001604051809103902060030160009054906101000a900473ffffffffffffffffffffffffffffffffffffffff1673ffffffffffffffffffffffffffffffffffffffff163373ffffffffffffffffffffffffffffffffffffffff1614610494576040517f08c379a000000000000000000000000000000000000000000000000000000000815260040161048b90611d17565b60405180910390fd5b806000836040516104a59190611c22565b9081526020016040518091039020600201819055507ff43e063c64f20348047ffab110a622dca7d94e61542546faccbadb329dfd8e80826040516104e99190611a14565b60405180910390a15050565b600080826040516105069190611c22565b908152602001604051809103902060030160149054906101000a900460ff169050919050565b60008460405161053c9190611c22565b908152602001604051809103902060030160149054906101000a900460ff161561059b576040517f08c379a000000000000000000000000000000000000000000000000000000000815260040161059290611d83565b60405180910390fd5b6000600260008373ffffffffffffffffffffffffffffffffffffffff1673ffffffffffffffffffffffffffffffffffffffff16815260200190815260200160002080546105e790611dd2565b905014610629576040517f08c379a000000000000000000000000000000000000000000000000000000000815260040161062090611e75565b60405180910390fd5b6040518060a001604052808481526020018581526020018381526020018273ffffffffffffffffffffffffffffffffffffffff168152602001600115158152506000856040516106799190611c22565b9081526020016040518091039020600082015181600001908161069c9190612041565b5060208201518160010190816106b29190612041565b506040820151816002015560608201518160030160006101000a81548173ffffffffffffffffffffffffffffffffffffffff021916908373ffffffffffffffffffffffffffffffffffffffff16021790555060808201518160030160146101000a81548160ff02191690831515021790555090505083600260008373ffffffffffffffffffffffffffffffffffffffff1673ffffffffffffffffffffffffffffffffffffffff16815260200190815260200160002090816107739190612041565b507f7d18b42f8b54b38db3858d85addd4845b244c7ab57e5b3246475b88815c0c5cf8484836040516107a793929190611892565b60405180910390a150505050565b606080600080846040516107c99190611c22565b908152602001604051809103902060030160149054906101000a900460ff16610827576040517f08c379a000000000000000000000000000000000000000000000000000000000815260040161081e90611c85565b60405180910390fd5b6000846040516108379190611c22565b90815260200160405180910390206000016000856040516108589190611c22565b90815260200160405180910390206001016000866040516108799190611c22565b908152602001604051809103902060030160009054906101000a900473ffffffffffffffffffffffffffffffffffffffff168280546108b790611dd2565b80601f01602080910402602001604051908101604052809291908181526020018280546108e390611dd2565b80156109305780601f1061090557610100808354040283529160200191610930565b820191906000526020600020905b81548152906001019060200180831161091357829003601f168201915b5050505050925081805461094390611dd2565b80601f016020809104026020016040519081016040528092919081815260200182805461096f90611dd2565b80156109bc5780601f10610991576101008083540402835291602001916109bc565b820191906000526020600020905b81548152906001019060200180831161099f57829003601f168201915b505050505091509250925092509193909250565b600080836040516109e19190611c22565b908152602001604051809103902060030160149054906101000a900460ff16610a3f576040517f08c379a0000000000000000000000000000000000000000000000000000000008152600401610a3690611c85565b60405180910390fd5b81600084604051610a509190611c22565b90815260200160405180910390206002015414905092915050565b60008060008060008086604051610a829190611c22565b908152602001604051809103902060030160149054906101000a900460ff16610ae0576040517f08c379a0000000000000000000000000000000000000000000000000000000008152600401610ad790611c85565b60405180910390fd5b600186604051610af09190611c22565b908152602001604051809103902060050160009054906101000a900460ff16610b4e576040517f08c379a0000000000000000000000000000000000000000000000000000000008152600401610b459061215f565b60405180910390fd5b6000600187604051610b609190611c22565b90815260200160405180910390206040518060c001604052908160008201548152602001600182015481526020016002820154815260200160038201548152602001600482015481526020016005820160009054906101000a900460ff161515151581525050905080600001518160200151826040015183606001518460800151955095509550955095505091939590929450565b6001818051602081018201805184825260208301602085012081835280955050505050506000915090508060000154908060010154908060020154908060030154908060040154908060050160009054906101000a900460ff16905086565b600081805160208101820180518482526020830160208501208183528095505050505050600091509050806000018054610c8d90611dd2565b80601f0160208091040260200160405190810160405280929190818152602001828054610cb990611dd2565b8015610d065780601f10610cdb57610100808354040283529160200191610d06565b820191906000526020600020905b815481529060010190602001808311610ce957829003601f168201915b505050505090806001018054610d1b90611dd2565b80601f0160208091040260200160405190810160405280929190818152602001828054610d4790611dd2565b8015610d945780601f10610d6957610100808354040283529160200191610d94565b820191906000526020600020905b815481529060010190602001808311610d7757829003601f168201915b5050505050908060020154908060030160009054906101000a900473ffffffffffffffffffffffffffffffffffffffff16908060030160149054906101000a900460ff16905085565b6060600082604051610def9190611c22565b908152602001604051809103902060030160149054906101000a900460ff16610e4d576040517f08c379a0000000000000000000000000000000000000000000000000000000008152600401610e4490611c85565b60405180910390fd5b600082604051610e5d9190611c22565b90815260200160405180910390206000018054610e7990611dd2565b80601f0160208091040260200160405190810160405280929190818152602001828054610ea590611dd2565b8015610ef25780601f10610ec757610100808354040283529160200191610ef2565b820191906000526020600020905b815481529060010190602001808311610ed557829003601f168201915b50505050509050919050565b60026020528060005260406000206000915090508054610f1d90611dd2565b80601f0160208091040260200160405190810160405280929190818152602001828054610f4990611dd2565b8015610f965780601f10610f6b57610100808354040283529160200191610f96565b820191906000526020600020905b815481529060010190602001808311610f7957829003601f168201915b505050505081565b600360009054906101000a900473ffffffffffffffffffffffffffffffffffffffff1681565b60008082604051610fd59190611c22565b908152602001604051809103902060030160149054906101000a900460ff16611033576040517f08c379a000000000000000000000000000000000000000000000000000000000815260040161102a90611c85565b60405180910390fd5b6000826040516110439190611c22565b9081526020016040518091039020600201549050919050565b60008260405161106c9190611c22565b908152602001604051809103902060030160149054906101000a900460ff166110ca576040517f08c379a00000000000000000000000000000000000000000000000000000000081526004016110c190611c85565b60405180910390fd5b6000826040516110da9190611c22565b908152602001604051809103902060030160009054906101000a900473ffffffffffffffffffffffffffffffffffffffff1673ffffffffffffffffffffffffffffffffffffffff163373ffffffffffffffffffffffffffffffffffffffff1614611179576040517f08c379a0000000000000000000000000000000000000000000000000000000008152600401611170906121f1565b60405180910390fd5b8060008360405161118a9190611c22565b908152602001604051809103902060000190816111a79190612041565b507f737225f579161db636372a077837786804e50b182056ccd6992a18a6c56162de82826040516111d9929190612211565b60405180910390a15050565b600080826040516111f69190611c22565b908152602001604051809103902060030160149054906101000a900460ff16611254576040517f08c379a000000000000000000000000000000000000000000000000000000000815260040161124b90611c85565b60405180910390fd5b6000826040516112649190611c22565b908152602001604051809103902060030160009054906101000a900473ffffffffffffffffffffffffffffffffffffffff169050919050565b6000866040516112ad9190611c22565b908152602001604051809103902060030160149054906101000a900460ff1661130b576040517f08c379a000000000000000000000000000000000000000000000000000000000815260040161130290611c85565b60405180910390fd5b60008660405161131b9190611c22565b908152602001604051809103902060030160009054906101000a900473ffffffffffffffffffffffffffffffffffffffff1673ffffffffffffffffffffffffffffffffffffffff163373ffffffffffffffffffffffffffffffffffffffff16146113ba576040517f08c379a00000000000000000000000000000000000000000000000000000000081526004016113b1906122ba565b60405180910390fd5b6040518060c00160405280868152602001858152602001848152602001838152602001828152602001600115158152506001876040516113fa9190611c22565b9081526020016040518091039020600082015181600001556020820151816001015560408201518160020155606082015181600301556080820151816004015560a08201518160050160006101000a81548160ff0219169083151502179055509050507fc059db0a2349eaa5d107d9598d56ad83aa565bd7c132ac1fbfe8f86f0ee4ea768660405161148c9190611a14565b60405180910390a1505050505050565b6000604051905090565b600080fd5b600080fd5b600080fd5b600080fd5b6000601f19601f8301169050919050565b7f4e487b7100000000000000000000000000000000000000000000000000000000600052604160045260246000fd5b611503826114ba565b810181811067ffffffffffffffff82111715611522576115216114cb565b5b80604052505050565b600061153561149c565b905061154182826114fa565b919050565b600067ffffffffffffffff821115611561576115606114cb565b5b61156a826114ba565b9050602081019050919050565b82818337600083830152505050565b600061159961159484611546565b61152b565b9050828152602081018484840111156115b5576115b46114b5565b5b6115c0848285611577565b509392505050565b600082601f8301126115dd576115dc6114b0565b5b81356115ed848260208601611586565b91505092915050565b6000819050919050565b611609816115f6565b811461161457600080fd5b50565b60008135905061162681611600565b92915050565b60008060408385031215611643576116426114a6565b5b600083013567ffffffffffffffff811115611661576116606114ab565b5b61166d858286016115c8565b925050602061167e85828601611617565b9150509250929050565b60006020828403121561169e5761169d6114a6565b5b600082013567ffffffffffffffff8111156116bc576116bb6114ab565b5b6116c8848285016115c8565b91505092915050565b60008115159050919050565b6116e6816116d1565b82525050565b600060208201905061170160008301846116dd565b92915050565b600073ffffffffffffffffffffffffffffffffffffffff82169050919050565b600061173282611707565b9050919050565b61174281611727565b811461174d57600080fd5b50565b60008135905061175f81611739565b92915050565b6000806000806080858703121561177f5761177e6114a6565b5b600085013567ffffffffffffffff81111561179d5761179c6114ab565b5b6117a9878288016115c8565b945050602085013567ffffffffffffffff8111156117ca576117c96114ab565b5b6117d6878288016115c8565b93505060406117e787828801611617565b92505060606117f887828801611750565b91505092959194509250565b600081519050919050565b600082825260208201905092915050565b60005b8381101561183e578082015181840152602081019050611823565b60008484015250505050565b600061185582611804565b61185f818561180f565b935061186f818560208601611820565b611878816114ba565b840191505092915050565b61188c81611727565b82525050565b600060608201905081810360008301526118ac818661184a565b905081810360208301526118c0818561184a565b90506118cf6040830184611883565b949350505050565b6000819050919050565b6118ea816118d7565b82525050565b600060a08201905061190560008301886118e1565b61191260208301876118e1565b61191f60408301866118e1565b61192c60608301856118e1565b61193960808301846118e1565b9695505050505050565b600060c08201905061195860008301896118e1565b61196560208301886118e1565b61197260408301876118e1565b61197f60608301866118e1565b61198c60808301856118e1565b61199960a08301846116dd565b979650505050505050565b6119ad816115f6565b82525050565b600060a08201905081810360008301526119cd818861184a565b905081810360208301526119e1818761184a565b90506119f060408301866119a4565b6119fd6060830185611883565b611a0a60808301846116dd565b9695505050505050565b60006020820190508181036000830152611a2e818461184a565b905092915050565b600060208284031215611a4c57611a4b6114a6565b5b6000611a5a84828501611750565b91505092915050565b6000602082019050611a786000830184611883565b92915050565b6000602082019050611a9360008301846119a4565b92915050565b60008060408385031215611ab057611aaf6114a6565b5b600083013567ffffffffffffffff811115611ace57611acd6114ab565b5b611ada858286016115c8565b925050602083013567ffffffffffffffff811115611afb57611afa6114ab565b5b611b07858286016115c8565b9150509250929050565b611b1a816118d7565b8114611b2557600080fd5b50565b600081359050611b3781611b11565b92915050565b60008060008060008060c08789031215611b5a57611b596114a6565b5b600087013567ffffffffffffffff811115611b7857611b776114ab565b5b611b8489828a016115c8565b9650506020611b9589828a01611b28565b9550506040611ba689828a01611b28565b9450506060611bb789828a01611b28565b9350506080611bc889828a01611b28565b92505060a0611bd989828a01611b28565b9150509295509295509295565b600081905092915050565b6000611bfc82611804565b611c068185611be6565b9350611c16818560208601611820565b80840191505092915050565b6000611c2e8284611bf1565b915081905092915050565b7f5573657220646f6573206e6f7420657869737400000000000000000000000000600082015250565b6000611c6f60138361180f565b9150611c7a82611c39565b602082019050919050565b60006020820190508181036000830152611c9e81611c62565b9050919050565b7f4f6e6c792077616c6c6574206f776e65722063616e206368616e67652070617360008201527f73776f7264000000000000000000000000000000000000000000000000000000602082015250565b6000611d0160258361180f565b9150611d0c82611ca5565b604082019050919050565b60006020820190508181036000830152611d3081611cf4565b9050919050565b7f5573657220616c72656164792065786973747300000000000000000000000000600082015250565b6000611d6d60138361180f565b9150611d7882611d37565b602082019050919050565b60006020820190508181036000830152611d9c81611d60565b9050919050565b7f4e487b7100000000000000000000000000000000000000000000000000000000600052602260045260246000fd5b60006002820490506001821680611dea57607f821691505b602082108103611dfd57611dfc611da3565b5b50919050565b7f57616c6c6574206164647265737320616c72656164792072656769737465726560008201527f6400000000000000000000000000000000000000000000000000000000000000602082015250565b6000611e5f60218361180f565b9150611e6a82611e03565b604082019050919050565b60006020820190508181036000830152611e8e81611e52565b9050919050565b60008190508160005260206000209050919050565b60006020601f8301049050919050565b600082821b905092915050565b600060088302611ef77fffffffffffffffffffffffffffffffffffffffffffffffffffffffffffffffff82611eba565b611f018683611eba565b95508019841693508086168417925050509392505050565b6000819050919050565b6000611f3e611f39611f34846118d7565b611f19565b6118d7565b9050919050565b6000819050919050565b611f5883611f23565b611f6c611f6482611f45565b848454611ec7565b825550505050565b600090565b611f81611f74565b611f8c818484611f4f565b505050565b5b81811015611fb057611fa5600082611f79565b600181019050611f92565b5050565b601f821115611ff557611fc681611e95565b611fcf84611eaa565b81016020851015611fde578190505b611ff2611fea85611eaa565b830182611f91565b50505b505050565b600082821c905092915050565b600061201860001984600802611ffa565b1980831691505092915050565b60006120318383612007565b9150826002028217905092915050565b61204a82611804565b67ffffffffffffffff811115612063576120626114cb565b5b61206d8254611dd2565b612078828285611fb4565b600060209050601f8311600181146120ab5760008415612099578287015190505b6120a38582612025565b86555061210b565b601f1984166120b986611e95565b60005b828110156120e1578489015182556001820191506020850194506020810190506120bc565b868310156120fe57848901516120fa601f891682612007565b8355505b6001600288020188555050505b505050505050565b7f53657474696e677320646f206e6f742065786973740000000000000000000000600082015250565b600061214960158361180f565b915061215482612113565b602082019050919050565b600060208201905081810360008301526121788161213c565b9050919050565b7f4f6e6c792077616c6c6574206f776e65722063616e207570646174652070726f60008201527f66696c6500000000000000000000000000000000000000000000000000000000602082015250565b60006121db60248361180f565b91506121e68261217f565b604082019050919050565b6000602082019050818103600083015261220a816121ce565b9050919050565b6000604082019050818103600083015261222b818561184a565b9050818103602083015261223f818461184a565b90509392505050565b7f4f6e6c792077616c6c6574206f776e65722063616e207570646174652073657460008201527f74696e6773000000000000000000000000000000000000000000000000000000602082015250565b60006122a460258361180f565b91506122af82612248565b604082019050919050565b600060208201905081810360008301526122d381612297565b905091905056fea2646970667358221220b69a89cc8ee3958592c5c0df5fc665f9b092b1ed559e9c15719944e30c9c92e764736f6c63430008130033",
  "immutableReferences": {},
  "source": "// SPDX-License-Identifier: MIT\r\npragma solidity ^0.8.19;\r\n\r\ncontract UserManagement {\r\n    struct User {\r\n        string name;\r\n        string email;\r\n        bytes32 passwordHash;\r\n        address walletAddress;\r\n        bool exists;\r\n    }\r\n\r\n    struct UserSettings {\r\n        uint256 hrHigh;\r\n        uint256 hrLow;\r\n        uint256 spo2Low;\r\n        uint256 tempHigh;\r\n        uint256 tempLow;\r\n        bool exists;\r\n    }\r\n\r\n    mapping(string => User) public users;\r\n    mapping(string => UserSettings) public userSettings;\r\n    mapping(address => string) public walletToEmail;\r\n    address public owner;\r\n\r\n    event UserRegistered(string email, string name, address walletAddress);\r\n    event UserUpdated(string email, string name);\r\n    event SettingsUpdated(string email);\r\n    event PasswordChanged(string email);\r\n\r\n    constructor() {\r\n        owner = msg.sender;\r\n    }\r\n\r\n    modifier onlyOwner() {\r\n        require(msg.sender == owner, \"Only owner can call this function\");\r\n        _;\r\n    }\r\n\r\n    function registerUser(\r\n        string memory _email, \r\n        string memory _name, \r\n        bytes32 _passwordHash,\r\n        address _walletAddress\r\n    ) public {\r\n        require(!users[_email].exists, \"User already exists\");\r\n        require(bytes(walletToEmail[_walletAddress]).length == 0, \"Wallet address already registered\");\r\n        \r\n        users[_email] = User({\r\n            name: _name,\r\n            email: _email,\r\n            passwordHash: _passwordHash,\r\n            walletAddress: _walletAddress,\r\n            exists: true\r\n        });\r\n\r\n        walletToEmail[_walletAddress] = _email;\r\n        emit UserRegistered(_email, _name, _walletAddress);\r\n    }\r\n\r\n    function updateUser(string memory _email, string memory _name) public {\r\n        require(users[_email].exists, \"User does not exist\");\r\n        require(msg.sender == users[_email].walletAddress, \"Only wallet owner can update profile\");\r\n        \r\n        users[_email].name = _name;\r\n        emit UserUpdated(_email, _name);\r\n    }\r\n\r\n    function updateSettings(\r\n        string memory _email,\r\n        uint256 _hrHigh,\r\n        uint256 _hrLow,\r\n        uint256 _spo2Low,\r\n        uint256 _tempHigh,\r\n        uint256 _tempLow\r\n    ) public {\r\n        require(users[_email].exists, \"User does not exist\");\r\n        require(msg.sender == users[_email].walletAddress, \"Only wallet owner can update settings\");\r\n        \r\n        userSettings[_email] = UserSettings({\r\n            hrHigh: _hrHigh,\r\n            hrLow: _hrLow,\r\n            spo2Low: _spo2Low,\r\n            tempHigh: _tempHigh,\r\n            tempLow: _tempLow,\r\n            exists: true\r\n        });\r\n\r\n        emit SettingsUpdated(_email);\r\n    }\r\n\r\n    function changePassword(string memory _email, bytes32 _newPasswordHash) public {\r\n        require(users[_email].exists, \"User does not exist\");\r\n        require(msg.sender == users[_email].walletAddress, \"Only wallet owner can change password\");\r\n        \r\n        users[_email].passwordHash = _newPasswordHash;\r\n        emit PasswordChanged(_email);\r\n    }\r\n\r\n    function getUser(string memory _email) public view returns (\r\n        string memory name, \r\n        string memory email,\r\n        address walletAddress\r\n    ) {\r\n        require(users[_email].exists, \"User does not exist\");\r\n        return (users[_email].name, users[_email].email, users[_email].walletAddress);\r\n    }\r\n\r\n    function getUserWallet(string memory _email) public view returns (address) {\r\n        require(users[_email].exists, \"User does not exist\");\r\n        return users[_email].walletAddress;\r\n    }\r\n\r\n    function getUserSettings(string memory _email) public view returns (\r\n        uint256 hrHigh,\r\n        uint256 hrLow,\r\n        uint256 spo2Low,\r\n        uint256 tempHigh,\r\n        uint256 tempLow\r\n    ) {\r\n        require(users[_email].exists, \"User does not exist\");\r\n        require(userSettings[_email].exists, \"Settings do not exist\");\r\n        \r\n        UserSettings memory settings = userSettings[_email];\r\n        return (\r\n            settings.hrHigh,\r\n            settings.hrLow,\r\n            settings.spo2Low,\r\n            settings.tempHigh,\r\n            settings.tempLow\r\n        );\r\n    }\r\n\r\n    function verifyPassword(string memory _email, bytes32 _passwordHash) public view returns (bool) {\r\n        require(users[_email].exists, \"User does not exist\");\r\n        return users[_email].passwordHash == _passwordHash;\r\n    }\r\n\r\n    function checkUser(string memory _email) public view returns (bool) {\r\n        return users[_email].exists;\r\n    }\r\n\r\n    function getUserPassword(string memory _email) public view returns (bytes32) {\r\n        require(users[_email].exists, \"User does not exist\");\r\n        return users[_email].passwordHash;\r\n    }\r\n\r\n    function getUserName(string memory _email) public view returns (string memory) {\r\n        require(users[_email].exists, \"User does not exist\");\r\n        return users[_email].name;\r\n    }\r\n}\r\n",
  "sourcePath": "D:\\blockchain\\MLEW-IoT-based-Oxygen-Level-monitoring-circuit-for-patient\\contracts\\UserManagement.sol",
  "compiler": {
    "name": "solc",
    "version": "0.8.19+commit.7dd6d404.Emscripten.clang"
  },
  "schemaVersion": "3.4.16",
  "updatedAt": "2025-03-14T10:23:57.780Z",
  "networkType": "ethereum",
  "devdoc": {
    "kind": "dev",
    "methods": {},
    "version": 1
  },
  "userdoc": {
    "kind": "user",
    "methods": {},
    "version": 1
  }
}