{
  "contractName": "UserManagement",
  "abi": [
    {
      "inputs": [],
      "stateMutability": "nonpayable",
      "type": "constructor"
    },
    {
      "anonymous": false,
      "inputs": [
        {
          "indexed": false,
          "internalType": "string",
          "name": "email",
          "type": "string"
        }
      ],
      "name": "PasswordChanged",
      "type": "event"
    },
    {
      "anonymous": false,
      "inputs": [
        {
          "indexed": false,
          "internalType": "string",
          "name": "email",
          "type": "string"
        }
      ],
      "name": "SettingsUpdated",
      "type": "event"
    },
    {
      "anonymous": false,
      "inputs": [
        {
          "indexed": false,
          "internalType": "string",
          "name": "email",
          "type": "string"
        },
        {
          "indexed": false,
          "internalType": "string",
          "name": "name",
          "type": "string"
        },
        {
          "indexed": false,
          "internalType": "address",
          "name": "walletAddress",
          "type": "address"
        }
      ],
      "name": "UserRegistered",
      "type": "event"
    },
    {
      "anonymous": false,
      "inputs": [
        {
          "indexed": false,
          "internalType": "string",
          "name": "email",
          "type": "string"
        },
        {
          "indexed": false,
          "internalType": "string",
          "name": "name",
          "type": "string"
        }
      ],
      "name": "UserUpdated",
      "type": "event"
    },
    {
      "inputs": [],
      "name": "owner",
      "outputs": [
        {
          "internalType": "address",
          "name": "",
          "type": "address"
        }
      ],
      "stateMutability": "view",
      "type": "function",
      "constant": true
    },
    {
      "inputs": [
        {
          "internalType": "string",
          "name": "",
          "type": "string"
        }
      ],
      "name": "userSettings",
      "outputs": [
        {
          "internalType": "uint256",
          "name": "hrHigh",
          "type": "uint256"
        },
        {
          "internalType": "uint256",
          "name": "hrLow",
          "type": "uint256"
        },
        {
          "internalType": "uint256",
          "name": "spo2Low",
          "type": "uint256"
        },
        {
          "internalType": "uint256",
          "name": "tempHigh",
          "type": "uint256"
        },
        {
          "internalType": "uint256",
          "name": "tempLow",
          "type": "uint256"
        },
        {
          "internalType": "bool",
          "name": "exists",
          "type": "bool"
        }
      ],
      "stateMutability": "view",
      "type": "function",
      "constant": true
    },
    {
      "inputs": [
        {
          "internalType": "string",
          "name": "",
          "type": "string"
        }
      ],
      "name": "users",
      "outputs": [
        {
          "internalType": "string",
          "name": "name",
          "type": "string"
        },
        {
          "internalType": "string",
          "name": "email",
          "type": "string"
        },
        {
          "internalType": "bytes32",
          "name": "passwordHash",
          "type": "bytes32"
        },
        {
          "internalType": "address",
          "name": "walletAddress",
          "type": "address"
        },
        {
          "internalType": "bool",
          "name": "exists",
          "type": "bool"
        }
      ],
      "stateMutability": "view",
      "type": "function",
      "constant": true
    },
    {
      "inputs": [
        {
          "internalType": "address",
          "name": "",
          "type": "address"
        }
      ],
      "name": "walletToEmail",
      "outputs": [
        {
          "internalType": "string",
          "name": "",
          "type": "string"
        }
      ],
      "stateMutability": "view",
      "type": "function",
      "constant": true
    },
    {
      "inputs": [
        {
          "internalType": "string",
          "name": "_email",
          "type": "string"
        },
        {
          "internalType": "string",
          "name": "_name",
          "type": "string"
        },
        {
          "internalType": "bytes32",
          "name": "_passwordHash",
          "type": "bytes32"
        },
        {
          "internalType": "address",
          "name": "_walletAddress",
          "type": "address"
        }
      ],
      "name": "registerUser",
      "outputs": [],
      "stateMutability": "nonpayable",
      "type": "function"
    },
    {
      "inputs": [
        {
          "internalType": "string",
          "name": "_email",
          "type": "string"
        },
        {
          "internalType": "string",
          "name": "_name",
          "type": "string"
        }
      ],
      "name": "updateUser",
      "outputs": [],
      "stateMutability": "nonpayable",
      "type": "function"
    },
    {
      "inputs": [
        {
          "internalType": "string",
          "name": "_email",
          "type": "string"
        },
        {
          "internalType": "uint256",
          "name": "_hrHigh",
          "type": "uint256"
        },
        {
          "internalType": "uint256",
          "name": "_hrLow",
          "type": "uint256"
        },
        {
          "internalType": "uint256",
          "name": "_spo2Low",
          "type": "uint256"
        },
        {
          "internalType": "uint256",
          "name": "_tempHigh",
          "type": "uint256"
        },
        {
          "internalType": "uint256",
          "name": "_tempLow",
          "type": "uint256"
        }
      ],
      "name": "updateSettings",
      "outputs": [],
      "stateMutability": "nonpayable",
      "type": "function"
    },
    {
      "inputs": [
        {
          "internalType": "string",
          "name": "_email",
          "type": "string"
        },
        {
          "internalType": "bytes32",
          "name": "_newPasswordHash",
          "type": "bytes32"
        }
      ],
      "name": "changePassword",
      "outputs": [],
      "stateMutability": "nonpayable",
      "type": "function"
    },
    {
      "inputs": [
        {
          "internalType": "string",
          "name": "_email",
          "type": "string"
        }
      ],
      "name": "getUser",
      "outputs": [
        {
          "internalType": "string",
          "name": "name",
          "type": "string"
        },
        {
          "internalType": "string",
          "name": "email",
          "type": "string"
        },
        {
          "internalType": "address",
          "name": "walletAddress",
          "type": "address"
        }
      ],
      "stateMutability": "view",
      "type": "function",
      "constant": true
    },
    {
      "inputs": [
        {
          "internalType": "string",
          "name": "_email",
          "type": "string"
        }
      ],
      "name": "getUserWallet",
      "outputs": [
        {
          "internalType": "address",
          "name": "",
          "type": "address"
        }
      ],
      "stateMutability": "view",
      "type": "function",
      "constant": true
    },
    {
      "inputs": [
        {
          "internalType": "string",
          "name": "_email",
          "type": "string"
        }
      ],
      "name": "getUserSettings",
      "outputs": [
        {
          "internalType": "uint256",
          "name": "hrHigh",
          "type": "uint256"
        },
        {
          "internalType": "uint256",
          "name": "hrLow",
          "type": "uint256"
        },
        {
          "internalType": "uint256",
          "name": "spo2Low",
          "type": "uint256"
        },
        {
          "internalType": "uint256",
          "name": "tempHigh",
          "type": "uint256"
        },
        {
          "internalType": "uint256",
          "name": "tempLow",
          "type": "uint256"
        }
      ],
      "stateMutability": "view",
      "type": "function",
      "constant": true
    },
    {
      "inputs": [
        {
          "internalType": "string",
          "name": "_email",
          "type": "string"
        },
        {
          "internalType": "bytes32",
          "name": "_passwordHash",
          "type": "bytes32"
        }
      ],
      "name": "verifyPassword",
      "outputs": [
        {
          "internalType": "bool",
          "name": "",
          "type": "bool"
        }
      ],
      "stateMutability": "view",
      "type": "function",
      "constant": true
    }
  ],
  "bytecode": "0x608060405234801561001057600080fd5b5033600360006101000a81548173ffffffffffffffffffffffffffffffffffffffff021916908373ffffffffffffffffffffffffffffffffffffffff160217905550612034806100616000396000f3fe608060405234801561001057600080fd5b50600436106100b45760003560e01c8063689e1c0311610071578063689e1c03146101bc57806385f3683b146101f05780638da5cb5b14610220578063dd4a24251461023e578063e57755151461025a578063e92259841461028a576100b4565b8063054f1b6a146100b95780632efba47e146100d557806331feb671146100f15780634586cf71146101235780634938aef41461015357806349aee44f14610187575b600080fd5b6100d360048036038101906100ce919061136b565b6102a6565b005b6100ef60048036038101906100ea9190611425565b610424565b005b61010b600480360381019061010691906114c4565b6106ad565b60405161011a9392919061159b565b60405180910390f35b61013d6004803603810190610138919061136b565b6108c8565b60405161014a91906115fb565b60405180910390f35b61016d600480360381019061016891906114c4565b610963565b60405161017e95949392919061162f565b60405180910390f35b6101a1600480360381019061019c91906114c4565b610aed565b6040516101b396959493929190611682565b60405180910390f35b6101d660048036038101906101d191906114c4565b610b4c565b6040516101e79594939291906116f2565b60405180910390f35b61020a60048036038101906102059190611753565b610cd5565b6040516102179190611780565b60405180910390f35b610228610d75565b60405161023591906117a2565b60405180910390f35b610258600480360381019061025391906117bd565b610d9b565b005b610274600480360381019061026f91906114c4565b610f24565b60405161028191906117a2565b60405180910390f35b6102a4600480360381019061029f9190611861565b610fdc565b005b6000826040516102b69190611946565b908152602001604051809103902060030160149054906101000a900460ff16610314576040517f08c379a000000000000000000000000000000000000000000000000000000000815260040161030b906119a9565b60405180910390fd5b6000826040516103249190611946565b908152602001604051809103902060030160009054906101000a900473ffffffffffffffffffffffffffffffffffffffff1673ffffffffffffffffffffffffffffffffffffffff163373ffffffffffffffffffffffffffffffffffffffff16146103c3576040517f08c379a00000000000000000000000000000000000000000000000000000000081526004016103ba90611a3b565b60405180910390fd5b806000836040516103d49190611946565b9081526020016040518091039020600201819055507ff43e063c64f20348047ffab110a622dca7d94e61542546faccbadb329dfd8e80826040516104189190611780565b60405180910390a15050565b6000846040516104349190611946565b908152602001604051809103902060030160149054906101000a900460ff1615610493576040517f08c379a000000000000000000000000000000000000000000000000000000000815260040161048a90611aa7565b60405180910390fd5b6000600260008373ffffffffffffffffffffffffffffffffffffffff1673ffffffffffffffffffffffffffffffffffffffff16815260200190815260200160002080546104df90611af6565b905014610521576040517f08c379a000000000000000000000000000000000000000000000000000000000815260040161051890611b99565b60405180910390fd5b6040518060a001604052808481526020018581526020018381526020018273ffffffffffffffffffffffffffffffffffffffff168152602001600115158152506000856040516105719190611946565b908152602001604051809103902060008201518160000190816105949190611d65565b5060208201518160010190816105aa9190611d65565b506040820151816002015560608201518160030160006101000a81548173ffffffffffffffffffffffffffffffffffffffff021916908373ffffffffffffffffffffffffffffffffffffffff16021790555060808201518160030160146101000a81548160ff02191690831515021790555090505083600260008373ffffffffffffffffffffffffffffffffffffffff1673ffffffffffffffffffffffffffffffffffffffff168152602001908152602001600020908161066b9190611d65565b507f7d18b42f8b54b38db3858d85addd4845b244c7ab57e5b3246475b88815c0c5cf84848360405161069f9392919061159b565b60405180910390a150505050565b606080600080846040516106c19190611946565b908152602001604051809103902060030160149054906101000a900460ff1661071f576040517f08c379a0000000000000000000000000000000000000000000000000000000008152600401610716906119a9565b60405180910390fd5b60008460405161072f9190611946565b90815260200160405180910390206000016000856040516107509190611946565b90815260200160405180910390206001016000866040516107719190611946565b908152602001604051809103902060030160009054906101000a900473ffffffffffffffffffffffffffffffffffffffff168280546107af90611af6565b80601f01602080910402602001604051908101604052809291908181526020018280546107db90611af6565b80156108285780601f106107fd57610100808354040283529160200191610828565b820191906000526020600020905b81548152906001019060200180831161080b57829003601f168201915b5050505050925081805461083b90611af6565b80601f016020809104026020016040519081016040528092919081815260200182805461086790611af6565b80156108b45780601f10610889576101008083540402835291602001916108b4565b820191906000526020600020905b81548152906001019060200180831161089757829003601f168201915b505050505091509250925092509193909250565b600080836040516108d99190611946565b908152602001604051809103902060030160149054906101000a900460ff16610937576040517f08c379a000000000000000000000000000000000000000000000000000000000815260040161092e906119a9565b60405180910390fd5b816000846040516109489190611946565b90815260200160405180910390206002015414905092915050565b6000806000806000808660405161097a9190611946565b908152602001604051809103902060030160149054906101000a900460ff166109d8576040517f08c379a00000000000000000000000000000000000000000000000000000000081526004016109cf906119a9565b60405180910390fd5b6001866040516109e89190611946565b908152602001604051809103902060050160009054906101000a900460ff16610a46576040517f08c379a0000000000000000000000000000000000000000000000000000000008152600401610a3d90611e83565b60405180910390fd5b6000600187604051610a589190611946565b90815260200160405180910390206040518060c001604052908160008201548152602001600182015481526020016002820154815260200160038201548152602001600482015481526020016005820160009054906101000a900460ff161515151581525050905080600001518160200151826040015183606001518460800151955095509550955095505091939590929450565b6001818051602081018201805184825260208301602085012081835280955050505050506000915090508060000154908060010154908060020154908060030154908060040154908060050160009054906101000a900460ff16905086565b600081805160208101820180518482526020830160208501208183528095505050505050600091509050806000018054610b8590611af6565b80601f0160208091040260200160405190810160405280929190818152602001828054610bb190611af6565b8015610bfe5780601f10610bd357610100808354040283529160200191610bfe565b820191906000526020600020905b815481529060010190602001808311610be157829003601f168201915b505050505090806001018054610c1390611af6565b80601f0160208091040260200160405190810160405280929190818152602001828054610c3f90611af6565b8015610c8c5780601f10610c6157610100808354040283529160200191610c8c565b820191906000526020600020905b815481529060010190602001808311610c6f57829003601f168201915b5050505050908060020154908060030160009054906101000a900473ffffffffffffffffffffffffffffffffffffffff16908060030160149054906101000a900460ff16905085565b60026020528060005260406000206000915090508054610cf490611af6565b80601f0160208091040260200160405190810160405280929190818152602001828054610d2090611af6565b8015610d6d5780601f10610d4257610100808354040283529160200191610d6d565b820191906000526020600020905b815481529060010190602001808311610d5057829003601f168201915b505050505081565b600360009054906101000a900473ffffffffffffffffffffffffffffffffffffffff1681565b600082604051610dab9190611946565b908152602001604051809103902060030160149054906101000a900460ff16610e09576040517f08c379a0000000000000000000000000000000000000000000000000000000008152600401610e00906119a9565b60405180910390fd5b600082604051610e199190611946565b908152602001604051809103902060030160009054906101000a900473ffffffffffffffffffffffffffffffffffffffff1673ffffffffffffffffffffffffffffffffffffffff163373ffffffffffffffffffffffffffffffffffffffff1614610eb8576040517f08c379a0000000000000000000000000000000000000000000000000000000008152600401610eaf90611f15565b60405180910390fd5b80600083604051610ec99190611946565b90815260200160405180910390206000019081610ee69190611d65565b507f737225f579161db636372a077837786804e50b182056ccd6992a18a6c56162de8282604051610f18929190611f35565b60405180910390a15050565b60008082604051610f359190611946565b908152602001604051809103902060030160149054906101000a900460ff16610f93576040517f08c379a0000000000000000000000000000000000000000000000000000000008152600401610f8a906119a9565b60405180910390fd5b600082604051610fa39190611946565b908152602001604051809103902060030160009054906101000a900473ffffffffffffffffffffffffffffffffffffffff169050919050565b600086604051610fec9190611946565b908152602001604051809103902060030160149054906101000a900460ff1661104a576040517f08c379a0000000000000000000000000000000000000000000000000000000008152600401611041906119a9565b60405180910390fd5b60008660405161105a9190611946565b908152602001604051809103902060030160009054906101000a900473ffffffffffffffffffffffffffffffffffffffff1673ffffffffffffffffffffffffffffffffffffffff163373ffffffffffffffffffffffffffffffffffffffff16146110f9576040517f08c379a00000000000000000000000000000000000000000000000000000000081526004016110f090611fde565b60405180910390fd5b6040518060c00160405280868152602001858152602001848152602001838152602001828152602001600115158152506001876040516111399190611946565b9081526020016040518091039020600082015181600001556020820151816001015560408201518160020155606082015181600301556080820151816004015560a08201518160050160006101000a81548160ff0219169083151502179055509050507fc059db0a2349eaa5d107d9598d56ad83aa565bd7c132ac1fbfe8f86f0ee4ea76866040516111cb9190611780565b60405180910390a1505050505050565b6000604051905090565b600080fd5b600080fd5b600080fd5b600080fd5b6000601f19601f8301169050919050565b7f4e487b7100000000000000000000000000000000000000000000000000000000600052604160045260246000fd5b611242826111f9565b810181811067ffffffffffffffff821117156112615761126061120a565b5b80604052505050565b60006112746111db565b90506112808282611239565b919050565b600067ffffffffffffffff8211156112a05761129f61120a565b5b6112a9826111f9565b9050602081019050919050565b82818337600083830152505050565b60006112d86112d384611285565b61126a565b9050828152602081018484840111156112f4576112f36111f4565b5b6112ff8482856112b6565b509392505050565b600082601f83011261131c5761131b6111ef565b5b813561132c8482602086016112c5565b91505092915050565b6000819050919050565b61134881611335565b811461135357600080fd5b50565b6000813590506113658161133f565b92915050565b60008060408385031215611382576113816111e5565b5b600083013567ffffffffffffffff8111156113a05761139f6111ea565b5b6113ac85828601611307565b92505060206113bd85828601611356565b9150509250929050565b600073ffffffffffffffffffffffffffffffffffffffff82169050919050565b60006113f2826113c7565b9050919050565b611402816113e7565b811461140d57600080fd5b50565b60008135905061141f816113f9565b92915050565b6000806000806080858703121561143f5761143e6111e5565b5b600085013567ffffffffffffffff81111561145d5761145c6111ea565b5b61146987828801611307565b945050602085013567ffffffffffffffff81111561148a576114896111ea565b5b61149687828801611307565b93505060406114a787828801611356565b92505060606114b887828801611410565b91505092959194509250565b6000602082840312156114da576114d96111e5565b5b600082013567ffffffffffffffff8111156114f8576114f76111ea565b5b61150484828501611307565b91505092915050565b600081519050919050565b600082825260208201905092915050565b60005b8381101561154757808201518184015260208101905061152c565b60008484015250505050565b600061155e8261150d565b6115688185611518565b9350611578818560208601611529565b611581816111f9565b840191505092915050565b611595816113e7565b82525050565b600060608201905081810360008301526115b58186611553565b905081810360208301526115c98185611553565b90506115d8604083018461158c565b949350505050565b60008115159050919050565b6115f5816115e0565b82525050565b600060208201905061161060008301846115ec565b92915050565b6000819050919050565b61162981611616565b82525050565b600060a0820190506116446000830188611620565b6116516020830187611620565b61165e6040830186611620565b61166b6060830185611620565b6116786080830184611620565b9695505050505050565b600060c0820190506116976000830189611620565b6116a46020830188611620565b6116b16040830187611620565b6116be6060830186611620565b6116cb6080830185611620565b6116d860a08301846115ec565b979650505050505050565b6116ec81611335565b82525050565b600060a082019050818103600083015261170c8188611553565b905081810360208301526117208187611553565b905061172f60408301866116e3565b61173c606083018561158c565b61174960808301846115ec565b9695505050505050565b600060208284031215611769576117686111e5565b5b600061177784828501611410565b91505092915050565b6000602082019050818103600083015261179a8184611553565b905092915050565b60006020820190506117b7600083018461158c565b92915050565b600080604083850312156117d4576117d36111e5565b5b600083013567ffffffffffffffff8111156117f2576117f16111ea565b5b6117fe85828601611307565b925050602083013567ffffffffffffffff81111561181f5761181e6111ea565b5b61182b85828601611307565b9150509250929050565b61183e81611616565b811461184957600080fd5b50565b60008135905061185b81611835565b92915050565b60008060008060008060c0878903121561187e5761187d6111e5565b5b600087013567ffffffffffffffff81111561189c5761189b6111ea565b5b6118a889828a01611307565b96505060206118b989828a0161184c565b95505060406118ca89828a0161184c565b94505060606118db89828a0161184c565b93505060806118ec89828a0161184c565b92505060a06118fd89828a0161184c565b9150509295509295509295565b600081905092915050565b60006119208261150d565b61192a818561190a565b935061193a818560208601611529565b80840191505092915050565b60006119528284611915565b915081905092915050565b7f5573657220646f6573206e6f7420657869737400000000000000000000000000600082015250565b6000611993601383611518565b915061199e8261195d565b602082019050919050565b600060208201905081810360008301526119c281611986565b9050919050565b7f4f6e6c792077616c6c6574206f776e65722063616e206368616e67652070617360008201527f73776f7264000000000000000000000000000000000000000000000000000000602082015250565b6000611a25602583611518565b9150611a30826119c9565b604082019050919050565b60006020820190508181036000830152611a5481611a18565b9050919050565b7f5573657220616c72656164792065786973747300000000000000000000000000600082015250565b6000611a91601383611518565b9150611a9c82611a5b565b602082019050919050565b60006020820190508181036000830152611ac081611a84565b9050919050565b7f4e487b7100000000000000000000000000000000000000000000000000000000600052602260045260246000fd5b60006002820490506001821680611b0e57607f821691505b602082108103611b2157611b20611ac7565b5b50919050565b7f57616c6c6574206164647265737320616c72656164792072656769737465726560008201527f6400000000000000000000000000000000000000000000000000000000000000602082015250565b6000611b83602183611518565b9150611b8e82611b27565b604082019050919050565b60006020820190508181036000830152611bb281611b76565b9050919050565b60008190508160005260206000209050919050565b60006020601f8301049050919050565b600082821b905092915050565b600060088302611c1b7fffffffffffffffffffffffffffffffffffffffffffffffffffffffffffffffff82611bde565b611c258683611bde565b95508019841693508086168417925050509392505050565b6000819050919050565b6000611c62611c5d611c5884611616565b611c3d565b611616565b9050919050565b6000819050919050565b611c7c83611c47565b611c90611c8882611c69565b848454611beb565b825550505050565b600090565b611ca5611c98565b611cb0818484611c73565b505050565b5b81811015611cd457611cc9600082611c9d565b600181019050611cb6565b5050565b601f821115611d1957611cea81611bb9565b611cf384611bce565b81016020851015611d02578190505b611d16611d0e85611bce565b830182611cb5565b50505b505050565b600082821c905092915050565b6000611d3c60001984600802611d1e565b1980831691505092915050565b6000611d558383611d2b565b9150826002028217905092915050565b611d6e8261150d565b67ffffffffffffffff811115611d8757611d8661120a565b5b611d918254611af6565b611d9c828285611cd8565b600060209050601f831160018114611dcf5760008415611dbd578287015190505b611dc78582611d49565b865550611e2f565b601f198416611ddd86611bb9565b60005b82811015611e0557848901518255600182019150602085019450602081019050611de0565b86831015611e225784890151611e1e601f891682611d2b565b8355505b6001600288020188555050505b505050505050565b7f53657474696e677320646f206e6f742065786973740000000000000000000000600082015250565b6000611e6d601583611518565b9150611e7882611e37565b602082019050919050565b60006020820190508181036000830152611e9c81611e60565b9050919050565b7f4f6e6c792077616c6c6574206f776e65722063616e207570646174652070726f60008201527f66696c6500000000000000000000000000000000000000000000000000000000602082015250565b6000611eff602483611518565b9150611f0a82611ea3565b604082019050919050565b60006020820190508181036000830152611f2e81611ef2565b9050919050565b60006040820190508181036000830152611f4f8185611553565b90508181036020830152611f638184611553565b90509392505050565b7f4f6e6c792077616c6c6574206f776e65722063616e207570646174652073657460008201527f74696e6773000000000000000000000000000000000000000000000000000000602082015250565b6000611fc8602583611518565b9150611fd382611f6c565b604082019050919050565b60006020820190508181036000830152611ff781611fbb565b905091905056fea2646970667358221220b4544685e6bbaaa2fc32c6d6ed9eaaf8108393964824930de64f9de0b598a09164736f6c63430008130033",
  "immutableReferences": {},
  "source": "// SPDX-License-Identifier: MIT\npragma solidity ^0.8.19;\n\ncontract UserManagement {\n    struct User {\n        string name;\n        string email;\n        bytes32 passwordHash;\n        address walletAddress;\n        bool exists;\n    }\n\n    struct UserSettings {\n        uint256 hrHigh;\n        uint256 hrLow;\n        uint256 spo2Low;\n        uint256 tempHigh;\n        uint256 tempLow;\n        bool exists;\n    }\n\n    mapping(string => User) public users;\n    mapping(string => UserSettings) public userSettings;\n    mapping(address => string) public walletToEmail;\n    address public owner;\n\n    event UserRegistered(string email, string name, address walletAddress);\n    event UserUpdated(string email, string name);\n    event SettingsUpdated(string email);\n    event PasswordChanged(string email);\n\n    constructor() {\n        owner = msg.sender;\n    }\n\n    modifier onlyOwner() {\n        require(msg.sender == owner, \"Only owner can call this function\");\n        _;\n    }\n\n    function registerUser(\n        string memory _email, \n        string memory _name, \n        bytes32 _passwordHash,\n        address _walletAddress\n    ) public {\n        require(!users[_email].exists, \"User already exists\");\n        require(bytes(walletToEmail[_walletAddress]).length == 0, \"Wallet address already registered\");\n        \n        users[_email] = User({\n            name: _name,\n            email: _email,\n            passwordHash: _passwordHash,\n            walletAddress: _walletAddress,\n            exists: true\n        });\n\n        walletToEmail[_walletAddress] = _email;\n        emit UserRegistered(_email, _name, _walletAddress);\n    }\n\n    function updateUser(string memory _email, string memory _name) public {\n        require(users[_email].exists, \"User does not exist\");\n        require(msg.sender == users[_email].walletAddress, \"Only wallet owner can update profile\");\n        \n        users[_email].name = _name;\n        emit UserUpdated(_email, _name);\n    }\n\n    function updateSettings(\n        string memory _email,\n        uint256 _hrHigh,\n        uint256 _hrLow,\n        uint256 _spo2Low,\n        uint256 _tempHigh,\n        uint256 _tempLow\n    ) public {\n        require(users[_email].exists, \"User does not exist\");\n        require(msg.sender == users[_email].walletAddress, \"Only wallet owner can update settings\");\n        \n        userSettings[_email] = UserSettings({\n            hrHigh: _hrHigh,\n            hrLow: _hrLow,\n            spo2Low: _spo2Low,\n            tempHigh: _tempHigh,\n            tempLow: _tempLow,\n            exists: true\n        });\n\n        emit SettingsUpdated(_email);\n    }\n\n    function changePassword(string memory _email, bytes32 _newPasswordHash) public {\n        require(users[_email].exists, \"User does not exist\");\n        require(msg.sender == users[_email].walletAddress, \"Only wallet owner can change password\");\n        \n        users[_email].passwordHash = _newPasswordHash;\n        emit PasswordChanged(_email);\n    }\n\n    function getUser(string memory _email) public view returns (\n        string memory name, \n        string memory email,\n        address walletAddress\n    ) {\n        require(users[_email].exists, \"User does not exist\");\n        return (users[_email].name, users[_email].email, users[_email].walletAddress);\n    }\n\n    function getUserWallet(string memory _email) public view returns (address) {\n        require(users[_email].exists, \"User does not exist\");\n        return users[_email].walletAddress;\n    }\n\n    function getUserSettings(string memory _email) public view returns (\n        uint256 hrHigh,\n        uint256 hrLow,\n        uint256 spo2Low,\n        uint256 tempHigh,\n        uint256 tempLow\n    ) {\n        require(users[_email].exists, \"User does not exist\");\n        require(userSettings[_email].exists, \"Settings do not exist\");\n        \n        UserSettings memory settings = userSettings[_email];\n        return (\n            settings.hrHigh,\n            settings.hrLow,\n            settings.spo2Low,\n            settings.tempHigh,\n            settings.tempLow\n        );\n    }\n\n    function verifyPassword(string memory _email, bytes32 _passwordHash) public view returns (bool) {\n        require(users[_email].exists, \"User does not exist\");\n        return users[_email].passwordHash == _passwordHash;\n    }\n} ",
  "sourcePath": "D:\\users\\sudheer\\Desktop\\womes patient monitoring\\contracts\\UserManagement.sol",
  "compiler": {
    "name": "solc",
    "version": "0.8.19+commit.7dd6d404.Emscripten.clang"
  },
  "schemaVersion": "3.4.16",
  "updatedAt": "2025-03-12T19:19:18.890Z",
  "networkType": "ethereum",
  "devdoc": {
    "kind": "dev",
    "methods": {},
    "version": 1
  },
  "userdoc": {
    "kind": "user",
    "methods": {},
    "version": 1
  }
}